S01A00006275696C642F686F6D656E65742F6D61696E2E7372656307
S11300000C945A010C94F1130C94FB130C940514E6
S11300100C940F140C9419140C9423140C942D1494
S11300200C945D140C9477010C9477010C94F812E1
S11300300C9453120C94E2120C94D0130C94D1111E
S11300400C9411120C9467140C94F4150C9477010D
S11300500C944E160C9477010C9477010C94770150
S11300600C94ED120C949B170C947A170C9485172E
S11300700C9490170C94AE170C945D170C947701A4
S11300800C946F170C9477010C947701CD0A5B0BD9
S1130090060C0C0C100C430C490C730C820CB40CA5
S11300A0050DC20D2E0E020F090F0E0F4D0F000885
S11300B01C18141000002110422063308440A55005
S11300C0C660E770088129914AA16BB18CC1ADD19A
S11300D0CEE1EFF13112100273325222B552944242
S11300E0F772D662399318837BB35AA3BDD39CC3EA
S11300F0FFF3DEE36224433420040114E664C7748E
S1130100A44485546AA54BB528850995EEE5CFF539
S1130110ACC58DD55336722611163006D776F666E1
S11301209556B4465BB77AA719973887DFF7FEE789
S11301309DD7BCC7C448E5588668A77840086118AD
S113014002282338CCC9EDD98EE9AFF948896999D9
S11301500AA92BB9F55AD44AB77A966A711A500A81
S1130160333A122AFDDBDCCBBFFB9EEB799B588B29
S11301703BBB1AABA66C877CE44CC55C222C033CCD
S1130180600C411CAEED8FFDECCDCDDD2AAD0BBD79
S1130190688D499D977EB66ED55EF44E133E322E21
S11301A0511E700E9FFFBEEFDDDFFCCF1BBF3AAFC9
S11301B0599F788F8891A981CAB1EBA10CD12DC127
S11301C04EF16FE18010A100C230E32004502540BD
S11301D046706760B9839893FBA3DAB33DC31CD31D
S11301E07FE35EF3B1029012F322D232354214520D
S11301F077625672EAB5CBA5A89589856EF54FE569
S11302002CD50DC5E234C324A0148104667447645C
S113021024540544DBA7FAB79987B8975FE77EF7BC
S11302201DC73CD7D326F2369106B01657667676AC
S1130230154634564CD96DC90EF92FE9C899E98988
S11302408AB9ABA94458654806782768C018E108FC
S11302508238A3287DCB5CDB3FEB1EFBF98BD89B5C
S1130260BBAB9ABB754A545A376A167AF10AD01A4C
S1130270B32A923A2EFD0FED6CDD4DCDAABD8BADA8
S1130280E89DC98D267C076C645C454CA23C832C9C
S1130290E01CC10C1FEF3EFF5DCF7CDF9BAFBABFFC
S11302A0D98FF89F176E367E554E745E932EB23EEC
S11302B0D10EF01E11241FBECFEFD0E1DEBFCDBFA3
S11302C011E0A0E0B1E0E8E4F4E300E00BBF02C019
S11302D007900D92A231B107D9F716E0A2E1B1E07F
S11302E001C01D92A53EB107E1F70C94E20F0C94F6
S11302F000008FB7F894992708958FBF08958FB79A
S1130300F894282F33278BB391E089278BBB2FBF19
S11303100895982F8FB7F894282FE92FFF27E554D5
S1130320F94F80818F3FB1F48091CE06891791F007
S11303308091B8068F3F19F49093B80607C0809156
S1130340CE06E82FFF27E554F94F90839093CE060D
S113035080E001C085E02FBF9927089520E08FB782
S1130360F894982F8091A9068A3029F48091050683
S1130370843009F421E09FBF222351F08EE00E94D3
S113038089018FB7F8949927109223018FBF08959C
S11303908FB7F894282F332781E0809323012FBF50
S11303A00895CF938FB7F894C82F8091CB058823F5
S11303B041F48CE00E948901882319F481E0809340
S11303C0CB05CFBFCF910895882311F06E9A08957D
S11303D06E98089580912701882319F480E090E0B5
S11303E0089581E090E008952F923F924F925F929A
S11303F06F927F928F929F92AF92BF92CF92DF9231
S1130400EF92FF920F931F93CF93DF93CDB7DEB795
S11304102A970FB6F894DEBF0FBECDBF8FB7F894FE
S1130420282F332729873A8720907D0330907E0335
S113043040907F035090800366242EE4A22E93E81C
S1130440B92EC62CD62CE62CF62C062D162D222DD4
S1130450332D442D552D662D762D862D962D0E94F7
S1130460CF1729833A834B835C836D837E838F8389
S11304709887822E932EA42EB52EC62ED72EE82E24
S1130480F92E24013501769467945794479400E239
S1130490282D392D4A2D5B2D6C2D7D2D8E2D9F2DD4
S11304A00E94D918A22EB32EC42ED52EC601B50192
S11304B0640D751D861D971D97FF05C09F776F5F9F
S11304C07F4F8F4F9F4F60937D0370937E03809384
S11304D07F039093800339853FBF2A960FB6F89423
S11304E0DEBF0FBECDBFDF91CF911F910F91FF9063
S11304F0EF90DF90CF90BF90AF909F908F907F90C0
S11305006F905F904F903F902F900895CF93DF931B
S11305108FB7F894682F7727A091F805B091F90563
S1130520C091FA05D091FB0582B706B600FE04C05F
S11305301196C11DD11D82B7282F33274427552773
S113054088279A2FAB2FBC2F822B932BA42BB52B50
S11305506FBFBC01CD01DF91CF91089580E88093F6
S11305606F03109206061092F7051092D0060895B4
S1130570FC018285992708958FB7F894682F77270F
S113058080917203909173032CB53DB506B602FEBB
S113059003C001962CB53DB5AA27BB274427552790
S11305A0DC0199278827822B932BA42BB52B6FBFB3
S11305B0BC01CD010895AF92BF92CF92DF92EF922A
S11305C0FF920F931F93CF93DF930E948602FC0147
S11305D0EB012091E4053091E5054091E605509149
S11305E0E7057B018C01E21AF30A040B150B109248
S11305F0E9058091810390918203A0918303B091D6
S11306008403E816F9060A071B07C0F0EE24FF244A
S11306108701280F391F4A1F5B1F2093E40530937D
S1130620E5054093E6055093E705E0928103F092D7
S11306308203009383031093840363C05C016D0100
S1130640AE18BF08C00AD10A8601750161E0A6167A
S113065061E0B60660E0C60660E0D60690F080E091
S1130660A81680E0B80681E0C80680E0D80610F03D
S11306708FEF04C0BB27AD2D9C2D8B2D8093E905F6
S113068058C061E8A616B104C104D10430F1C058C1
S1130690DF4FEF4FFF4FC093E405D093E505E093A0
S11306A0E605F093E705C058D040E040F04080E80C
S11306B09FEFAFEFBFEFE80EF91E0A1F1B1FE0927A
S11306C08103F09282030093830310938403F0E880
S11306D0EF2EF12C012D112D14C0280F391F4A1FA4
S11306E05B1F2093E4053093E5054093E6055093A2
S11306F0E7051092810310928203109283031092F3
S113070084036E2D82B7282F8C1B8E5F8E1518F0F4
S1130710622F6E5F01C06C0F662309F461E06150C3
S113072000B601FCFDCF61BF82E086BF87B782605F
S113073087BFDF91CF911F910F91FF90EF90DF90D2
S1130740CF90BF90AF9008950F931F93DC01CB011E
S11307506FB7F894062F11278093E4059093E5056D
S1130760A093E605B093E7052093810330938203B9
S113077040938303509384030E94DB020FBF1F91B5
S11307800F910895AF92BF92CF92DF92EF92FF92B2
S11307900F931F93CF93DF930E94BC02FC01EB01E4
S11307A08091850390918603A0918703B09188037B
S11307B0A090A506B090A606C090A706D090A80663
S11307C09C01AD012A0D3B1D4C1D5D1D79018A0163
S11307D0EC1AFD0A0E0B1F0BC817D907EA07FB0713
S11307E030F0281739074A075B0770F005C028174F
S11307F039074A075B0728F4C217D307E407F5074C
S113080018F0EE24FF24870121E0E21620E8F20626
S113081020E0020720E0120730F1C050D048EF4F2B
S1130820FF4FC0938503D0938603E0938703F0932F
S11308308803C050D048E040F04080E090E8AFEF3B
S1130840BFEFE80EF91E0A1F1B1FE092A506F092E7
S1130850A6060093A7061093A806E12CB0E8FB2E89
S1130860012D112D14C08A0D9B1DAC1DBD1D80933F
S1130870850390938603A0938703B0938803109213
S1130880A5061092A6061092A7061092A806B70114
S11308902CB53DB5C9018C1B9D0B03968E159F0588
S11308A020F0B9016D5F7F4F02C06C0F7D1F611591
S11308B0710511F461E070E0615070407BBD6ABD68
S11308C080E186BF87B7806187BFDF91CF911F9199
S11308D00F91FF90EF90DF90CF90BF90AF9008956D
S11308E00F931F93DC01CB016FB7F894062F1127E8
S11308F08093850390938603A0938703B093880322
S11309002093A5063093A6064093A7065093A80605
S11309100E94C2030FBF1F910F910895EF92FF929F
S11309200F931F93CF938FB7F894C82F0E94F401AD
S1130930DC01CB019C01277030702F5F3F4FC1F069
S1130940C90113E0880F991F1A95E1F7820F931FCD
S1130950820F931F7C01002711270E94BC02DC0137
S1130960CB01A8019701BC01CD010E94700406C00F
S113097081E090E09093260180932501CFBFCF9131
S11309801F910F91FF90EF90089597B79F7D97BFA8
S113099090E296BF882319F08EB5806402C08EB5AC
S11309A08F7B8EBD87B7806287BF80E090E008951B
S11309B08FB9779BFECF8FB1992708950F931F931B
S11309C08B010E94D804812F99270E94D804802F7C
S11309D00E94D80499271F910F910895DF92EF92F6
S11309E0FF920F931F93CF937A01C22FDD248C01C2
S11309F0060F111D802F80680E94D8041695079554
S1130A00802F807C0E94D804CC2341F0F70181918F
S1130A107F010E94D804D82EC150F6CF8D2D99277E
S1130A20CF911F910F91FF90EF90DF90089588234D
S1130A3011F06F9A08956F9808951F9310E0812F15
S1130A400E94E401BA9ABB98B99AB89A6C9AC09871
S1130A50812F0E941705709A6B986A98689881E0B4
S1130A600E94E4011F9108950F931F93CF93082FC1
S1130A708FB7F894282F3327122F809129018823C8
S1130A8021F02FBF85E090E021C0909127019923A8
S1130A9041F482E0809327019093090180E090E083
S1130AA002C081E090E09927C82F882311F40E94A6
S1130AB01D058C2F9927282F882329F400930C01D6
S1130AC081E0809329011FBF822F9927CF911F9125
S1130AD00F910895CF93C82F0E94EA01882311F43F
S1130AE00E941D0580912701882359F481E0809399
S1130AF02701C09307068AE00E94890180E090E004
S1130B001EC0EC2FFF27EF52F94F80818F3FA1F4D5
S1130B10E0910A01EC1781F080910B018F3F19F4E9
S1130B20C0930B0104C0FF27EF52F94FC083C09359
S1130B300A0180E090E002C085E090E099279927BF
S1130B40CF910895CF93282F8FB7F894C82F909101
S1130B502901992369F081E090E002C0880F991F70
S1130B602A95E2F720912801282B2093280108C018
S1130B7020930C0181E080932901892F0E946A054A
S1130B80CFBF80E090E0CF910895CF9382E00E94A0
S1130B9034059927C82F882319F082E00E94A20502
S1130BA08C2F9927CF9108951F93CF93DF93982F7C
S1130BB08FB7F894282F3327122F80910C018917AF
S1130BC021F02FBF81E090E071C04FEF40930C0102
S1130BD080912701823009F03FC090910901992347
S1130BE0D9F520E030E080910B01841711F421E065
S1130BF030E0232B69F58F3F79F0282F3327F90153
S1130C00EF52F94F808180930B018F3F11F4409391
S1130C100A014083C90102C08FEF90E08093070668
S1130C2081E0809327018AE00E94890115C0209306
S1130C300C0181E090E002C0880F991F4A95E2F709
S1130C40809538233093280180E00E946A052BC0E8
S1130C5040930901909327010E94EA01C82FDD27E0
S1130C60CC2331F48C2F0E94E401C093CF06C09AA8
S1130C70309128013323A9F020910C012F5F632FB9
S1130C807727243008F020E0422F5527CB01042E8B
S1130C9002C0959587950A94E2F780FDC8CF2F5F2F
S1130CA0F0CF109229011FBF80E090E0DF91CF9137
S1130CB01F910895CF93C1E0C0988091E8058823DF
S1130CC011F085E001C084E00E94D80483FD05C0D2
S1130CD080E00E94D80483FDC0E08FB7F894CC2351
S1130CE019F023E030E002C025E030E03093260123
S1130CF0209325018FBFC09ACC2329F082E00E9463
S1130D00D4050E948E04CF9108954F925F926F9202
S1130D107F928F929F92AF92BF92CF92DF92EF9287
S1130D20FF920F931F93CF93DF93CDB7DEB7249732
S1130D300FB6F894DEBF0FBECDBF2B013C01882453
S1130D4069E5A62E63E0B62EF501608561FFC2C099
S1130D502081318142815381D301C201821B930BD3
S1130D60A40BB50BE480F580068117818E159F05D1
S1130D70A007B10708F4AEC060FF03C06D7F6087B1
S1130D8009C02E0D3F1D401F511FF50120833183E3
S1130D9042835383E82CFF24E114F10409F09AC040
S1130DA08FB7F8949927C0902A01CC2011F08FBFF7
S1130DB091C08FBF80B3992756E0969587955A9531
S1130DC0E1F7982EF1E09F228091EF059091630363
S1130DD0891709F47AC0991609F077C084E090E085
S1130DE090932C0180932B018E010F5F1F4F8091F4
S1130DF00D0190910E018983892F9927F801818330
S1130E008091B9069091BA068B83892F99278C8398
S1130E108FB7F894992721E0D22ED0922A018FBF60
S1130E2087E00E948901B7018DE10E94DE0424E07D
S1130E30A8016C2D88E691E00E94EE04C09AC09847
S1130E408FB7F894E82EFF248D2D0E94C50401E08D
S1130E5010E01093260100932501C0922401C09252
S1130E60AD06EFBE8FB7F894E82EFF240E94AE02C1
S1130E7010937B0300937A0389B78F7B89BF80E447
S1130E8088BF8AB780628ABF8AB78F7E8ABF89B7D4
S1130E90806489BFEFBE8FB7F894082F1127809123
S1130EA02B0190912C01049719F483E00E94D8043B
S1130EB00FBF8FB7F894082F1127C09A80E00E94C3
S1130EC0D4050FBF82E00E9489019092EF0586E06D
S1130ED00E948901839489E090E0A80EB91E8820BD
S1130EE009F432CF89E00E94890124960FB6F89460
S1130EF0DEBF0FBECDBFDF91CF911F910F91FF9049
S1130F00EF90DF90CF90BF90AF909F908F907F90A5
S1130F106F905F904F9008958F929F92AF92BF927F
S1130F20CF92DF92EF92FF920F931F93CF93DF93B1
S1130F308FB7F894C090EB05D090EC0580906D03CA
S1130F4090906E03C0917603D0917703AE01465F13
S1130F505F4F20916606309167062417350708F025
S1130F609A018FBF59010894A108B108CA15DB057D
S1130F70E8F47E01E80CF91C8E010C0D1D1DC11452
S1130F80D10419F0F801808101C080E00E94D804E6
S1130F908114910411F0F701808321960F5F1F4F94
S1130FA00894E11CF11CCA15DB0548F381E00E949A
S1130FB017058FB7F894982FC114D10431F0CC0ED3
S1130FC0DD1EF60180818FB901C01FB8D09377036D
S1130FD0C09376039FBF80E090E0DF91CF911F9193
S1130FE00F91FF90EF90DF90CF90BF90AF909F90C4
S1130FF08F9008959C018FB7F89499273093EC054E
S11310002093EB0570936E0360936D035093670612
S11310104093660610927703109276038FBF8FB1C8
S11310200E948C07992708950F931F93C0980091ED
S11310302F01109130018FE790E0909398068093F0
S11310409706809197060E94D80441E050E0B801C9
S113105080E090E00E94FA071F910F91089582E0CA
S113106090E090937B0380937A0383E00E9434059D
S1131070882319F40E941408089583E00E94A205AD
S11310800895CF938FB7F894282F3327C22F8091D8
S11310907A0390917B03892B11F42FBF26C02091F2
S11310A0D006222341F080E090E0B79B02C081E0AB
S11310B090E0892B49F481B1992776E0969587953C
S11310C07A95E1F780FD08C0222319F0215020937E
S11310D0D0060E942F0808C081E090E090937B0323
S11310E080937A031092D006CFBFCF9108951F93B7
S11310F0CF93DF93C0918903D0918A038FA199275D
S1131100182F882309F41FE1C0988091AD06811738
S113111041F0812F9927806E9068BC0185E10E947F
S1131120DE041093AD06188111508EE390E0909385
S1131130980680939706809197060E94D804812F81
S11311409927AC0160E070E0CE010E94FA07DF91BC
S1131150CF911F910895982F80911701882399F5B5
S1131160992389F531E0309317018091060180932A
S1131170160120912201822F832380937903809189
S113118000019091010190931501809314018091C5
S1131190210180931301322731702E7F232B822F5C
S11311A08170E82FFF27EE0FFF1FEE5FFE4F808157
S11311B091819093010180930001277E2093220165
S11311C080E10E9489010895262FE4EBF0E02927AD
S11311D0220FF11DE20FF11DC895982F802D319635
S11311E0C895902508951F93CF93182FC62F8091EB
S11311F0050699278130910509F1823091051CF487
S1131200009749F025C18230910509F454C0039731
S113121009F464C01DC1112309F441C1109269038A
S1131220109268031092960610929C061092F6058E
S1131230909365038093640381E04DC0112309F00A
S11312402EC180916403909165030E94E4089093F9
S113125065038093640382E080930506C0939C0633
S1131260C43409F0F5C0C43409F0F2C0212F8091D0
S1131270220180FF03C0982F969503C0982F96955E
S11312809695917099F480FF02C0846001C08260D9
S11312908093220180912201877E886080932201BD
S11312A0109221018FEF8093060101C025E02223D3
S11312B009F4F5C0CDC0112309F0CAC06093F60546
S11312C080916403909165030E94E4089093650300
S11312D08093640383E080930506E1C080919606C1
S11312E08F3F09F4B5C0112309F449C0823008F4D2
S11312F0AFC090916803992319F0E92FE15001C020
S1131300E2E09E2FFF27E859FC4F8281282F3327E4
S1131310322F2227992319F0E92FE15001C0E2E08E
S1131320FF27E859FC4F82819927282B392B80917C
S11313306403909165032817390709F089C080E098
S11313400E94AB083091F6058091B0062091B10659
S1131350982F9F5F963008F090E0921709F478C0B8
S1131360E82FFF27E055F94F32838F5F8093B00653
S1131370863010F01092B0060E94D10169C082300C
S113138008F452C080916903E82FFF27E859FC4F05
S11313908281482F5527342F20912201822F869550
S11313A086958695837099278130910519F0029767
S11313B081F01FC0822F877E8061809322014423A5
S11313C011F484E001C080E0809321013093060190
S11313D010C0809121018E3260F4E0910001F091FF
S11313E00101E80FF11D4083809121018F5F8093FB
S11313F0210180916903E82FFF27E859FC4F92816E
S11314008F5F80936903833010F010926903892FF2
S11314109927682F80916403909165030E94E408E2
S1131420909365038093640380916803E82FFF27FA
S1131430E859FC4FC2838F5F80936803833010F0B8
S113144010926803809196068F5F8093960627C05A
S11314501092690310926803109205061092960682
S113146010929C061092F605109265031092640384
S1131470809112018D7F80931201C1E08C2F0E9414
S1131480AB0880912301882331F084E08093050622
S11314900E94AE0104C0112311F0C0930506CF9140
S11314A01F910895282F8FB7F89499272CB95E9A25
S11314B08FBF0895CF93DF93FC016115710519F473
S11314C081E090E01BC0C091E306D091E406209730
S11314D019F085E090E012C09093E4068093E3064F
S11314E07093AC066093AB062196D0936703C093C8
S11314F06603219780810E94520ACE01DF91CF9129
S11315000895982F8D57823068F48091120181607C
S11315108093120180E289278093EA058DE7809306
S11315209B0602C090939B0661E070E08BE996E015
S11315300E945A0A99270895809112018E7F809300
S113154012018EE780939B0661E070E08BE996E0E0
S11315500E945A0A99270895AF92BF92CF92DF92C0
S1131560EF92FF920F931F93CF93DF93CDB7DEB724
S113157024970FB6F894DEBF0FBECDBF9927AA27D4
S1131580BB27FC01419708F0E1C4EA5BFF4FEE0F73
S1131590FF1F0590F491E02D09948FB7F894282F3C
S11315A03327922F8091EE05E091ED058E1739F4E3
S11315B080917003882319F480939D06A1C19FBF75
S11315C0FF27EE0FFF1FED54FA4FE080F180F70183
S11315D080818C50082F11270093AF06C7010E9409
S11315E0B802F7019781292F3327522F4427968178
S11315F0292F3327422B532BD7011496FD01418306
S1131600252F3327F70124838287FD010483C090AB
S11316101D01D0901E01C114D10419F085E090E0A1
S113162040C082E090E090931E0180931D011092CF
S11316301801109219018FB7F894482F552710926A
S11316401A01F0922001E0921F0184E090E080935F
S11316501B01095F080F00931C014FBF90E08FB777
S1131660F894282F332780910306882331F481E0EE
S11316708093030690930406982F2FBF992321F09B
S11316800E94D101C60102C085E090E0882319F4CC
S113169080E090E006C010921E0110921D0181E0CE
S11316A090E0892B09F0D3C38FB7F894282F332700
S11316B08BB392E0A8C08FB7F894282F3327922FCA
S11316C080917103E091E2068E1739F480917C03D6
S11316D0882319F48093F00513C19FBFFF27EE0FF1
S11316E0FF1FE453FA4FA081B1818D010C5F1F4F9E
S11316F0F8016481FD0184819927982F8827F801D6
S113170021813327822B932BFD018683892F9927EF
S1131710878382E390E0848340E050E0F8014183D2
S1131720645F8FB7F894282F332780912E0183307C
S113173021F02FBF81E090E05EC085E080932E0110
S1131740B093CD06A093CC068091A0068F5F8093C2
S1131750A006FD0183832FBF61938F01FD01818169
S11317609927807290708183892F9927F80181834A
S11317709927982F8827FD0121813327822B932BCA
S1131780816498688183892F9927F80181838091E6
S1131790070190910801FD018087892F992781878E
S11317A043A740A741A715A644A74091CC06509152
S11317B0CD068FB7F894282F332780912501909177
S11317C02601019711F02FBF14C082E090E090939E
S11317D026018093250181E08093E80550938A03D4
S11317E0409389032FBF0E94C505882311F40E94EA
S11317F0770880E090E0892B11F58FB7F894282FB3
S113180033278BB394E089278BBB7AC083E0809322
S11318102E0110927C039AC381E080932E0196C31B
S11318208FB7F894992730912D018FBF83E080936F
S11318302E014091CC065091CD06332319F00E941D
S11318407F011FC08FB7F894682F2091E206E22F22
S1131850FF27EE0FFF1FE453FA4F80819181481751
S1131860590771F4822F8F5F8093E2068C3010F059
S11318703093E20680917C03882311F030937C033B
S11318806FBF81E007C38FB7F8949927109278034C
S11318905CC38FB7F894082F112780912A018823FD
S11318A001F50E948602DC01CB01809359039093D9
S11318B05A03A0935B03B0935C0381E090E0A0E043
S11318C0B0E080935D0390935E03A0935F03B093B5
S11318D060038091610383608093610389E00E94C7
S11318E089010FBF33C38FB7F894282F3327809112
S11318F02A01882329F0809161038D7F80936103FD
S11319002FBF24C340916203442339F58FB7F89461
S1131910282F3327E090E405F090E5050091E605D3
S11319201091E7058091810390918203A091830334
S1131930B0918403E80EF91E0A1F1B1F2FBF80916C
S1131940A1069091A206A091A306B091A4069C01C1
S1131950AD01C801B7010E94A4030E948602DC0104
S1131960CB01BC01CD013EC00E9486025B016C012B
S11319702FEF3FEF4FEF5FE760E087B78D7F87BFC3
S11319808091610381FF24C08091590390915A038F
S1131990A0915B03B0915C0386017501E81AF90A12
S11319A00A0B1B0BD801C701E0905D03F0905E03A6
S11319B000915F0310916003E81AF90A0A0B1B0BEC
S11319C0E216F306040715071CF4A801970161E069
S11319D0662309F4BBC212161306140615062CF06E
S11319E0C601B5010E948506B1C22093A1063093B9
S11319F0A2064093A3065093A40681E08093620359
S1131A00C601B5010E94A403A1C28FB7F894282F80
S1131A103327909107069093090182E08093270170
S1131A202FBF992309F092C28FB7F8949927209178
S1131A300C018FBF33272130310509F453C0223004
S1131A4031051CF4232B51F081C22230310509F4F5
S1131A507EC02330310509F492C078C2C0988FB794
S1131A60F894E82EFF2480912B0190912C01029789
S1131A70B9F583E090E090932C0180932B0168E109
S1131A8070E08DE10E94DE0411E010936303109274
S1131A902A0180B3992766E0969587956A95E1F7C0
S1131AA081238093EF0586E00E948901812F0E94A3
S1131AB0D8046FE772E08CE10E94DE0490910F017C
S1131AC085E0989FC0011124825D9E4F9064BC0103
S1131AD088E10E94DE0462EF7AE281E10E94DE0482
S1131AE0EFBE34C28FB7F894282F332740910F01EB
S1131AF08E010F5F1F4F80910D0190910E0189831C
S1131B00892F9927F80181838091B9069091BA06AB
S1131B108B83892F99278C832FBFC09885E0F82E5B
S1131B204F9DC0011124825D9E4F9064BC0188E1E9
S1131B300E94DE0424E0A80160E088E691E00E94AF
S1131B40EE04C09A81E00E94D4058F2DA3C18FB703
S1131B50F8949927209125018FBF3327223031052E
S1131B6021F02430310521F006C00E947708EEC12F
S1131B700E945A06EBC182E00E94D405E7C10E948C
S1131B801408E4C1A0912F01B09130018C919D0102
S1131B90280F311DF9018081881F8827881FFD01C6
S1131BA082A7F90182919F012F5F3F4FFD0180A71A
S1131BB0F90180818F77FD0181A7A0912F01B09158
S1131BC03001FD0187819927382F222786819927A3
S1131BD0282B392B80910701909108012817390788
S1131BE019F02F5F3F4F91F58D018FB7F894F82EC0
S1131BF080917003882329F58091EE059927FC01D3
S1131C00E80FF91FED54FA4F00811181A083B183CD
S1131C1001966CE070E00E9485198093EE05982F80
S1131C208091ED05981719F481E0809370038091F9
S1131C309D06882341F40E94890181E080939D06DA
S1131C4002C00E947F01FFBEF80101C0FD01F093B4
S1131C503001E0932F010E94410878C1A0E0BA2F1F
S1131C601A2F8FB7F894382FA093CB054A2F809161
S1131C70A906882309F441E0212F883009F421E0E2
S1131C80912F893009F491E0222311F4992359F01A
S1131C901093A9068091AA06E82FFF27EE0FFF1FD5
S1131CA0EF5FF94F10833FBF222311F4992311F101
S1131CB08091FC058F5F8093FC058091AE06833490
S1131CC099F48FB7F894282F8091B0069091B106BB
S1131CD0891741F0892F8F5F8093B106863010F009
S1131CE01092B1062FBF09C0A0E0222309F4A1E09D
S1131CF0B1E003C0442309F452C08FB7F894992784
S1131D00309123018FBF332349F08FB7F894282FE4
S1131D1033278AE08093A9062FBF41C08FB7F89478
S1131D20992760910106209103068FBF8FB7F8941D
S1131D3099277091B006E091B1067E1709F431E05D
S1131D408FBF332311F5662301F58FB7F894482F1D
S1131D50552782E080930106262F8FB7F8949927A0
S1131D60362F7E1709F431E08FBF332321F4FF2788
S1131D70E055F94F2281209302064FBF83E48093FC
S1131D80AE066093AA0611E00AC02150223038F44E
S1131D9085E48093AE0681E08093AA06182FBB23C6
S1131DA049F08FB7F8949927A0931A018FBF8FE059
S1131DB00E9489018091A9068A3019F40E94AE011B
S1131DC0C5C0112309F4C2C08FB7F894282F332754
S1131DD01092F2051092F1051092F50581E08093BE
S1131DE0A9062FBF0E949C0A882309F4AFC08FB7AD
S1131DF0F894282F332789E08093A9062FBF0E94E7
S1131E00D101A4C0569A539A579A549A10927003C7
S1131E109DC0569853985798549898C010921E0194
S1131E2010921D018FB7F894992730911A018FBF32
S1131E3080911901811133E08091180140911F01B3
S1131E4050912001882309F081C0332319F00E94A6
S1131E507F011FC08FB7F894682F2091ED05E22F02
S1131E60FF27EE0FFF1FED54FA4F80819181481731
S1131E70590771F4822F8F5F8093ED058C3010F039
S1131E803093ED0580917003882311F03093700333
S1131E906FBF80E00E94890159C08FB7F8949927D9
S1131EA0209116014091140150911501E09079039D
S1131EB08FBF2223A1F58A018FB7F894F82E909151
S1131EC07C03992339F580917103E82FFF27EE0FE6
S1131ED0FF1FE453FA4F00811181408351838F5FC8
S1131EE0809371038C3010F090937103909171037F
S1131EF08091E206981719F481E080937C03809125
S1131F00F005882349F481E00E94890181E08093EF
S1131F10F00502C00E947F01FFBE980101C09A0132
S1131F208FB7F894EE2DFF27EE0FFF1FEE5FFE4FE5
S1131F302083318390912201EE2011F09B7F01C018
S1131F409D7F90932201109217018FBF24960FB6A4
S1131F50F894DEBF0FBECDBFDF91CF911F910F91DB
S1131F60FF90EF90DF90CF90BF90AF900895809155
S1131F70B8068F3FD1F09091B8068091B806E82F4B
S1131F80FF27E554F94F80818093B8068091B80605
S1131F908F3F11F48093CE06892F9927FC01E554D5
S1131FA0F94F2FEF20839C0102C02FEF30E02F3F29
S1131FB019F480E090E00895822F0E94AC0A81E039
S1131FC090E00895CFEFD0E1DEBFCDBF8FB7F89496
S1131FD0F82E41E150E06FEF70E08BEB96E00E9449
S1131FE07E198FEF8093B8068093CE0681E08EBD74
S1131FF088E080BF83E083BF2CB53DB54AE78CB54C
S11320009DB58217930708F441509C014423B9F706
S113201092B782B78917E9F32CB53DB592B782B769
S11320208917E9F38CB59DB5821B930B4096A5E007
S113203096958795AA95E1F7909300068093FF05FE
S113204013BE83B78EBD8EB580BF12BE1DBC1CBC33
S11320508FEF86BF86B780937C0080B7282F332705
S11320602770307021153105C1F7D29AD19AD09AD0
S1132070DA9AD99AD89A25BB8FEF84BB309389001A
S11320802093880080917D00846080937D008091FE
S11320908A00887F826080938A0080B7886080BFCE
S11320A03DBD2CBD87B7846087BF8EB5887F8460B3
S11320B08EBD80E285BF0E94B70FC82FDD27CC23D9
S11320C0D1F712E006E08091FF0590910006AA275F
S11320D0BB27FCE0880F991FAA1FBB1FFA95D1F7F5
S11320E0BC01CD0120E031EE40E050E00E9498199F
S11320F0DA01C901019789B9292F33272093900068
S11321001BB900939500CAB940E050E08093990050
S11321102093980010939B0000939D00C0939A0015
S113212084E490E09093F4058093F305C093010652
S1132130C0930306C093A906C093F505C093AE06E9
S1132140C093FC055093F2054093F105C093CB0571
S1132150C093AA06C0936903C0936803C09305069D
S1132160C0939606C0939C06C093F60550936503EE
S113217040936403C093B106C093B00680911001EC
S1132180909111010196AA27BB2780937D03909318
S11321907E03A0937F03B09380038FEF8093D106D7
S11321A000B602FCFDCF12BE87B7816087BF83B73C
S11321B0887F836000B600FCFDCF83BF80912E0131
S11321C0882319F481E080932E01B89AD69AD59A7F
S11321D080910701909108019093BA068093B90603
S11321E08E98B89A8C9888E696E090933001809304
S11321F02F010E94B70F8823E1F7FFBE78948BE884
S113220093E02BE0E3EBF5E08193919321508E96DC
S113221027FFFACF1092ED051092EE0510929D065D
S113222081E08093700381E391E02BE0ECECF5E036
S11322308193919321508E9627FFFACF1092E20654
S1132240109271031092F00581E080937C038091D9
S11322502E01813049F582E080932E010E94F40121
S1132260DC01CB018093A0068FB7F894282F332785
S113227080912B0190912C01892B11F02FBF14C058
S113228081E090E090932C0180932B012FBFDD9A85
S11322900E94BC02DC01CB0124E130E040E050E0CC
S11322A0BC01CD010E9470048DE00E9489018FB7AA
S11322B0F894482F4AC087B79927887B892B41F423
S11322C080917D00282F33272B7F2115310519F0AC
S11322D020E030E02AC06F9928C08AB1807C29F5BB
S11322E080919A00807C09F5379B03C021E030E09F
S11322F01CC087B7992783709070892BA1F080B791
S1132300992787709070892BD1F781B792B7891B71
S11323108C3018F082B7853F18F022E030E005C019
S113232023E030E002C025E030E0E5E02E1708F4B9
S1132330E22F85B7837EFF27E255FF4F9491892BC7
S1132340806285BF78948895F8948091B8068F3F11
S1132350C9F09091B8068091B806E82FFF27E5549C
S1132360F94F80818093B8068091B8068F3F11F4AD
S11323708093CE06892F9927FC01E554F94F2FEF5E
S1132380208302C08FEF90E08F3F09F494CF4FBFBA
S11323900E94AC0A8CCF83B783BF00B600FCFDCF8C
S11323A008951F920F920FB60F9211242F933F930B
S11323B04F935F936F937F938F939F93AF93BF9349
S11323C0CF93EF93FF930E94CB1187B78D7F87BF85
S11323D078948FB7F894C82F8091810390918203E9
S11323E0A0918303B09184030097A105B10521F462
S11323F088E00E94890102C00E94DB02CFBFFF91E6
S1132400EF91CF91BF91AF919F918F917F916F91F8
S11324105F914F913F912F910F900FBE0F901F909E
S113242018951F920F920FB60F9211242F933F937A
S11324304F935F936F937F938F939F93AF93BF93C8
S1132440EF93FF930E94CB118091F8059091F905C9
S1132450A091FA05B091FB050196A11DB11D8093D1
S1132460F8059093F905A093FA05B093FB058091C4
S1132470E905882339F081508093E905882311F414
S11324800E94DB02FF91EF91BF91AF919F918F91D9
S11324907F916F915F914F913F912F910F900FBE5C
S11324A00F901F90189578941F920F920FB60F9269
S11324B011242F933F934F935F936F937F938F9345
S11324C09F93AF93BF93CF93EF93FF9387B78F7E81
S11324D087BF78948FB7F894C82F8091A506909100
S11324E0A606A091A706B091A8060097A105B1057C
S11324F009F053C080912501909126018430910503
S113250041F18530910518F4039721F034C0079701
S113251039F131C080B39927B6E096958795BA957D
S1132520E1F780FF13C084E090E09093260180934C
S113253025010E94BC02DC01CB0127E030E040E031
S113254050E0BC01CD010E94700415C00E948E04AD
S113255012C00E94C505882371F40E945A060BC05C
S113256081E090E0909326018093250110922D0143
S113257084E00E94890180912B0190912C010197A4
S113258071F482E090E090932C0180932B01DE980B
S1132590DE9A80E00E94A20502C00E94C203CFBF5F
S11325A0FF91EF91CF91BF91AF919F918F917F91C7
S11325B06F915F914F913F912F910F900FBE0F90AC
S11325C01F90189578941F920F920FB60F921124B2
S11325D00F900FBE0F901F90189578941F920F9232
S11325E00FB60F9211240F900FBE0F901F901895E5
S11325F078941F920F920FB60F9211241F932F936A
S11326003F934F935F936F937F938F939F93AF9376
S1132610BF93CF93DF93EF93FF93CCB5DDB580E207
S113262086BF8FB7F894182F8091250190912601C9
S11326308530910519F0069739F157C080E00E9462
S1132640C50482E00E94D40587B78F7E87BF86E0E9
S113265090E09093260180932501E0918903F09105
S11326608A038181992787709070019721F4C5A707
S11326708D2F992784A780B3992744E09695879551
S11326804A95E1F780FD77C081E00E94C504E0919E
S11326908903F0918A03818185FF13C087E090E06C
S11326A090932601809325010E94BC02DC01CB019A
S11326B020E830E040E050E0BC01CD010E9470040D
S11326C00BC081E090E09093260180932501109245
S11326D02D0184E00E94890180B3992734E0969506
S11326E087953A95E1F780FF46C0809124018823BD
S11326F051F50E94C504409106064830A0F480912B
S1132700F705840F912D911D9C01887F9370281BE0
S1132710E22FFF27EE0FFF1FEE52F94FC083D18344
S11327204F5F4093060681E080932401D0939A067C
S1132730C093990680B3992724E0969587952A95A6
S1132740E1F780FD18C0809124018823A1F081E085
S11327500E94C504109224018091990690919A06D2
S1132760C81BD90B2A9738F480910606882319F0E0
S11327708150809306061FBFFF91EF91DF91CF91A7
S1132780BF91AF919F918F917F916F915F914F9185
S11327903F912F911F910F900FBE0F901F9018958E
S11327A078941F920F920FB60F9211242F933F9398
S11327B08F939F938FB7F894282F332780917203B8
S11327C090917303019690937303809372032FBFC8
S11327D09F918F913F912F910F900FBE0F901F905B
S11327E018951F920F920FB60F9211240F900FBEDF
S11327F00F901F9018951F920F920FB60F921124ED
S11328000F900FBE0F901F9018951F920F920FB646
S11328100F9211240F900FBE0F901F9018951F92C6
S11328200F920FB60F9211240F900FBE0F901F90AE
S113283018951F920F920FB60F9211240F900FBE8E
S11328400F901F9018951F920F920FB60F9211249C
S11328500F900FBE0F901F9018951F920F920FB6F6
S11328600F9211242F933F934F935F936F937F9312
S11328708F939F93AF93BF93EF93FF9380917A03CA
S113288090917B03019719F40E942F0805C0809151
S1132890D0068F5F8093D006FF91EF91BF91AF91E7
S11328A09F918F917F916F915F914F913F912F9164
S11328B00F900FBE0F901F9018951F920F920FB696
S11328C00F9211240F900FBE0F901F9018951F9216
S11328D00F920FB60F921124EF92FF920F931F9352
S11328E02F933F934F935F936F937F938F939F9314
S11328F0AF93BF93CF93DF93EF93FF938FB1282FC1
S11329003327E0916D03F0916E03309739F0809195
S1132910760390917703E80FF91F20838091760363
S1132920909177030196909377038093760380E0E8
S11329300E941705209176033091770380916606F3
S1132940909167062817390718F40E948C0735C13F
S1132950E0906D03F0906E0310926E0310926D037D
S11329601092EC051092EB05109267061092660621
S113297010927703109276038FB18091970690910D
S113298098062091970686FFD3C02F7B822F992724
S11329908E33910509F411C1CF9709F00EC1C0918E
S11329A02F01D0913001188180917A0390917B039B
S11329B08230910521F0039709F444C0B4C083E048
S11329C090E090937B0380937A03412F55279A01DB
S11329D02F5F3F4F60916F03862F992782179307CC
S11329E07CF40E94AE02C09AC09888E00E94D80489
S11329F088E00E94D804C09A83E00E94D40590C065
S1132A0080E090E0B79B02C081E090E0892B69F4FC
S1132A1081B19927E6E096958795EA95E1F780FDDF
S1132A2004C0611B615060936F03193220F4BE012E
S1132A306F5F7F4F02C060E070E080E090E00E9432
S1132A40FA07BBC0C09A83E00E94D40580910606B1
S1132A50882309F11B3028F18091F705E82FFF271F
S1132A60EE0FFF1FEE52F94F808191818DA7892FC0
S1132A7099278CA78091F705992701969C01287FB7
S1132A803170821B930B8093F70580910606815069
S1132A908093060606C08FEF9FEF8DA78FEF90E01F
S1132AA08CA7FE01E10FF11D808187FF39C0EF285B
S1132AB0B9F169816770E0912F01F09130016230C2
S1132AC049F5A0918903B0918A0320818091250161
S1132AD090912601079721F5ED019B818381891748
S1132AE0F9F487B78F7E87BF81E08BA7E20FF11DD2
S1132AF08291319688A780818F7789A781E090E0C1
S1132B00909326018093250110922D0184E00E9468
S1132B10890106C0613021F48BE00E9489014DC017
S1132B200E9441084AC0C09A83E00E94D40545C06F
S1132B302E3309F042C0C09A80912501909126015C
S1132B40089739F481E090E0909326018093250161
S1132B5034C08091E805882349F484E090E09093A0
S1132B602601809325010E945A0627C082E00E9414
S1132B70D40583E090E090932601809325010E9480
S1132B80F401DC01CB018F71907001969C0163E02C
S1132B90220F331F6A95E1F7280F391F280F391FB9
S1132BA07901002711270E94BC02DC01CB01A80196
S1132BB09701BC01CD010E947004FF91EF91DF9158
S1132BC0CF91BF91AF919F918F917F916F915F91C1
S1132BD04F913F912F911F910F91FF90EF900F9084
S1132BE00FBE0F901F9018951F920F920FB60F9261
S1132BF011242F933F934F935F936F937F938F93FE
S1132C009F93AF93BF93EF93FF935F9B36C06CB1D9
S1132C10E0919E06F0919F063097C1F08091FD05EA
S1132C209091FE05E80FF91F608301969093FE05CD
S1132C308093FD05209108063091090682179307B9
S1132C40E0F010929F0610929E0617C06E3719F49A
S1132C5060E081E010C0809112016D3721F4826040
S1132C60809312010AC081FF05C08D7F80931201F9
S1132C7080E2682780E00E94F308FF91EF91BF9102
S1132C80AF919F918F917F916F915F914F913F9100
S1132C902F910F900FBE0F901F90189578941F924C
S1132CA00F920FB60F9211241F932F933F934F93BC
S1132CB05F936F937F938F939F93AF93BF93CF93C0
S1132CC0EF93FF9320916603309167038091AB06E5
S1132CD09091AC062817390780F4E091E306F0914F
S1132CE0E406E20FF31F2F5F3F4F309367032093F7
S1132CF0660380810E94520ACDC01092E4061092AD
S1132D00E3068091120180FF0EC08E7F8093120132
S1132D108091EA0580939B0661E070E08BE996E080
S1132D200E945A0AB7C08091A90699278430910558
S1132D3009F492C0853091054CF48230910509F173
S1132D40833091059CF5019789F09FC086309105E9
S1132D5009F490C0863091050CF485C08730910544
S1132D6009F48FC0089709F493C08FC08091AE0610
S1132D700E94810AC82F83E08093A9066091AE0661
S1132D800AC08091FC050E94810AC82F83E08093C9
S1132D90A9066091FC058091F1059091F2050E94CD
S1132DA0E4089093F2058093F1056DC08FB7F89411
S1132DB0182F8091AA06E82FFF27EE0FFF1FEE5F62
S1132DC0F94F80810E94810AC82F8091AA06E82FBA
S1132DD0FF27EE0FFF1FEE5FF94F60818091F10531
S1132DE09091F2050E94E4089093F2058093F10516
S1132DF08091F5058F5F8093F5058091AA06813057
S1132E0031F580911B01E0911F01F0912001E80F41
S1132E10F11DE081982F9F5F90931B0180911C010D
S1132E20891730F482E08093030680E090E002C0CA
S1132E308E2F9927E82FFF2780910306823039F0DF
S1132E408091F5058F3F19F0E093040603C084E0F8
S1132E508093A9061FBF17C08091F1050E94810AC3
S1132E60C82F85E00BC08091F2050E94810AC82F0B
S1132E7086E004C00E949C0AC82F87E08093A906BC
S1132E8002C088E003C0CC2329F089E08093A9061E
S1132E900E94D101FF91EF91CF91BF91AF919F918A
S1132EA08F917F916F915F914F913F912F911F91DE
S1132EB00F900FBE0F901F9018951F920F920FB690
S1132EC00F9211248F9380919B0087FF02C0809101
S1132ED09C008F910F900FBE0F901F9018957894BF
S1132EE01F920F920FB60F9211240F900FBE0F90E6
S1132EF01F90189578941F920F920FB60F92112479
S1132F000F900FBE0F901F90189578941F920F92F8
S1132F100FB60F9211240F900FBE0F901F901895AB
S1132F2078941F920F920FB60F9211240F900FBE38
S1132F300F901F90189578941F920F920FB60F92CE
S1132F4011248F939F9380918800909189009F9181
S1132F508F910F900FBE0F901F90189578941F9229
S1132F600F920FB60F9211242F933F938F939F9339
S1132F708FB7F894282F33278091740390917503A9
S1132F80019690937503809374032FBF9F918F9143
S1132F903F912F910F900FBE0F901F901895A0E3B3
S1132FA0B0E0E5EDF7E10C94ED19222E332E442E1A
S1132FB0552E662E772E882E992E2A2D3B2DA8E08D
S1132FC0FE013196AA2E1192AA94E9F729823A8237
S1132FD04B825C826D827E828F829886FE01399656
S1132FE0BA2E1192BA94E9F729873A87CB86DC8600
S1132FF0ED86FE860F87188BFE0171961192AA95B5
S1133000E9F7C980DA80EB80FC80C9A6DAA6EBA6D2
S1133010FCA6870176018FEF9FEFA0E0B0E0E822E5
S1133020F9220A231B23A9A4BAA4CBA4DCA4160165
S11330304424552489859A85AB85BC858DA79EA794
S1133040AFA7B8AB5C016D018FEF9FEFA0E0B0E0DC
S1133050A822B922CA22DB228DA59EA5AFA5B8A9B4
S11330603D0188249924C801B701A60195010E9455
S1133070BA1969A37AA38BA39CA3C801B701A401BD
S113308093010E94BA196DA37EA38FA398A7C201CE
S1133090B101A60195010E94BA197B018C01C201FC
S11330A0B101A40193010E94BA199B01AC01A9A02A
S11330B0BAA0CBA0DCA0C601AA27BB27ADA0BEA0A6
S11330C0CFA0D8A4A80EB91ECA1EDB1EAE0CBF1C0E
S11330D0C01ED11EADA2BEA2CFA2D8A6AE14BF04FC
S11330E0C006D10620F4205030404F4F5F4FCDA092
S11330F0DEA0EFA0F8A4C701AA27BB27820F931F65
S1133100A41FB51F8D8F9E8FAF8FB8A3A601332741
S1133110222789A19AA1ABA1BCA1A070B070280FED
S1133120391F4A1F5B1F298F3A8F4B8F5C8FA98CE5
S1133130BA8CCB8CDC8CED8CFE8C0F8D18A1ED8AB7
S1133140FE8A0F8B188F2D853E854F85588969A57A
S11331507AA58BA59CA50E94BA193B014C018D81CF
S11331609E81AF81B885BC01CD012DA53EA54FA59B
S113317058A90E94BA19DC01CB01680E791E8A1E77
S11331809B1E8D899E89AF89B88D860D971DA81DBC
S1133190B91D8D8B9E8BAF8BB88F6D897E898F897E
S11331A0988D2A2D3B2D4C2D5D2DE2E1E0960C945B
S11331B0091A8F929F92AF92BF92CF92DF92EF92B1
S11331C0FF920F93CF93DF93CDB7DEB768970FB617
S11331D0F894DEBF0FBECDBFE82E002349F4298B3F
S11331E03A8B4B8B5C8B6D8B7E8B8F8B988F6CC0EB
S11331F088E0FE01319611928A95E9F729833A8392
S11332004B835C836D837E83EF82988740E2401B0F
S113321014160CF041C08D819E81AF81B8856C017C
S11332207D0104C0CC0CDD1CEE1CFF1C4A95D2F7BA
S1133230202F332727FD3095022E04C0B695A7957D
S1133240979587950A94D2F78D879E87AF87B88B19
S113325089819A81AB81BC8104C0B695A795979565
S113326087952A95D2F78C299D29AE29BF2989876C
S11332709A87AB87BC8729853A854B855C856D85A4
S11332807E858F859889298B3A8B4B8B5C8B6D8BD4
S11332907E8B8F8B988F18C01D861E861F86188A7A
S11332A0842F992787FD909522273327281B390BD4
S11332B08D819E81AF81B88504C0B695A7959795F9
S11332C087952A95D2F7D3CF29893A894B895C8986
S11332D06D897E898F89988D68960FB6F894DEBFC4
S11332E00FBECDBFDF91CF910F91FF90EF90DF9094
S11332F0CF90BF90AF909F908F900895DC0101C054
S11333006D9341505040E0F7089597FB092E07262E
S11333100AD077FD04D04DD006D000201AF4709561
S113332061957F4F0895F6F7909581959F4F089585
S1133330A1E21A2EAA1BBB1BFD010DC0AA1FBB1FB5
S1133340EE1FFF1FA217B307E407F50720F0A21B27
S1133350B30BE40BF50B661F771F881F991F1A9494
S113336069F760957095809590959B01AC01BD01BE
S1133370CF010895629FD001739FF001829FE00DF9
S1133380F11D649FE00DF11D929FF00D839FF00DE0
S1133390749FF00D659FF00D9927729FB00DE11D8C
S11333A0F91F639FB00DE11DF91FBD01CF01112469
S11333B00895AA1BBB1B51E107C0AA1FBB1FA61778
S11333C0B70710F0A61BB70B881F991F5A95A9F7CA
S11333D080959095BC01CD0108952F923F924F9214
S11333E05F926F927F928F929F92AF92BF92CF9291
S11333F0DF92EF92FF920F931F93CF93DF93CDB79A
S1133400DEB7CA1BDB0B0FB6F894DEBF0FBECDBF11
S113341009942A88398848885F846E847D848C84E2
S11334209B84AA84B984C884DF80EE80FD800C81EB
S11334301B81AA81B981CE0FD11D0FB6F894DEBFCE
S10B34400FBECDBFED0108959C
S11334480A060A063806FF0100FFFFFFFF32001ACA
S105345801006D
S9030000FC
