S01A00006275696C642F686F6D656E65742F6D61696E2E7372656307
S11300000C945D000C94A3130C94AD130C94D513B1
S11300100C94DF130C94E9130C94F3130C94FD1358
S11300200C942D140C947A000C947A000C944115C1
S11300300C949C140C942B150C9419160C942113E9
S11300400C9461130C943A160C947A000C947A0074
S11300500C947A000C9437140C947A000C947A0063
S11300600C9436150C947A000C947A000C947A0053
S11300700C947A000C947A000C947A000C947A0014
S11300800C947A000C947A000C947A00160D860D68
S1130090B80D0D0E4B0E5D0E6F0ED80EDF0EE50E75
S11300A0260F760F780F7C0FA00FA70FC00FCF0F6E
S11300B08B10371100081C18141011241FBECFEF29
S11300C0D0E1DEBFCDBF11E0A0E0B1E0E0EEF5E3AA
S11300D000E00BBF02C007900D92A231B107D9F71F
S11300E012E0A2E1B1E001C01D92AA33B107E1F729
S11300F00C9483110C9400008FB7F89499270895F9
S11301008FBF08958FB7F894282F33278BB391E0CE
S113011089278BBB2FBF0895982F8FB7F894282F6A
S1130120E92FFF27E55FFD4F80818F3FB1F4809178
S11301302202891791F0809107028F3F19F490935E
S1130140070207C080912202E82FFF27E55FFD4FD9
S113015090839093220280E001C085E02FBF99270D
S11301600895FC0180818C5099270895FC018781B2
S11301709927382F222786819927822B932B08953C
S1130180EF920F931F93AE2D99E0899FF0011124F4
S1130190E95DFE4F40835183628373830483158337
S11301A026833783A17080858E7F8A2B8260808727
S11301B082E00E948C001F910F91EF900895CF93DD
S11301C0DF938FB7F894682F7727A0918A01B091B5
S11301D08B01C0918C01D0918D0182B706B600FECF
S11301E004C01196C11DD11D82B7282F332744277F
S11301F0552788279A2FAB2FBC2F822B932BA42B08
S1130200B52B6FBFBC01CD01DF91CF910895882339
S113021011F06E9A08956E980895809115018823BF
S113022019F480E090E0089581E090E008952F9221
S11302303F924F925F926F927F928F929F92AF9272
S1130240BF92CF92DF92EF92FF920F931F93CF93BF
S1130250DF93CDB7DEB72A970FB6F894DEBF0FBE93
S1130260CDBF8FB7F894282F332729873A8720905A
S11302706701309068014090690150906A016624DA
S1130280AEE4AA2EF3E8BF2EC62CD62CE62CF62C10
S1130290062D162D222D332D442D552D662D762D0C
S11302A0862D962D0E94C71729833A834B835C833E
S11302B06D837E838F839887822E932EA42EB52EF2
S11302C024013501769467945794479400E20E9480
S11302D0D118A22EB32EC42ED52EC601B501640D9D
S11302E0751D861D971D97FF05C09F776F5F7F4F14
S11302F08F4F9F4F609367017093680180936901EA
S113030090936A0139853FBF2A960FB6F894DEBFF1
S11303100FBECDBFDF91CF911F910F91FF90EF9052
S1130320DF90CF90BF90AF909F908F907F906F9011
S11303305F904F903F902F900895282F8695869533
S11303408695E82FFF27EF59FE4F277081E090E054
S113035002C0880F991F2A95E2F720812823822F53
S113036099270895FF920F931F93CF93DF93082F3C
S11303708FB7F894F82E80911D01833009F062C084
S113038080910A01801709F05DC080916101882382
S113039009F03EC081E090E0892BE9F510911E013F
S11303A0C12FDD272196C330D10511F4C0E0D0E080
S11303B08C2F0E949D01882381F4812F9927C817CF
S11303C0D90781F78FEF90E08093840181E08093D7
S11303D01D0189E00E948C0024C08C2F869586958F
S11303E08695E82FFF27EF59FE4F2C2F277081E0C9
S11303F090E002C0880F991F2A95E2F7982F9095F4
S1130400808189238083C0931E018C2F9927DCCFA0
S113041080E090E0C1CF83E080930A0110921D0137
S11304203798802F99278130910561F082309105AA
S11304301CF4892B21F006C0029719F003C01C9804
S113044001C0DF98FFBE81E090E0DF91CF911F9162
S11304500F91FF9008951F93CF93DF93C82F8FB709
S1130460F894282F3327122F80911D01882301F13E
S11304708C2F0E949D018823B1F48C2F869586953C
S11304808695E82FFF27EF59FE4FC77081E090E073
S113049002C0880F991FCA95E2F72081282B208378
S11304A080E090E002C085E090E01FBF992719C06A
S11304B081E080931D01C09384012FBF8FB7F8940E
S11304C09927379A8FBF8FB7F894C82FDD2780916B
S11304D00A01833019F489E00E948C00CFBF80E0C8
S11304E090E0DF91CF911F910895982F8FB7F894E2
S11304F0282F3327422F80912101882301F1E92FEE
S1130500FF27E85DFD4F80818F3FA1F4E0910C014E
S1130510E91781F080910D018F3F19F490930D013B
S113052004C0FF27E85DFD4F908390930C0180E0A9
S113053090E002C085E090E04FBF9927089541E024
S113054040932101909381012FBF80912001882342
S113055021F487E00E948C0002C040931F0180E0D8
S113056090E008952091C901822F99278130910547
S113057059F0823091051CF4009731F004C00297C1
S113058011F487E001C08FE1582F822F9927813021
S1130590910541F0823091051CF4892B19F004C0B7
S11305A0029711F428E001C020E033278FB7F894B4
S11305B0E82F80911F028E7F80931F02322F27B174
S11305C060E070E0922F929596959695937080E0F6
S11305D0891749F4852F8850863118F42F715217E2
S11305E011F461E070E0862F880F20911F022D7FA7
S11305F0282B852F8F71982F990F990F2378292BEA
S113060020931F028062992787B9406C217022953C
S1130610220F207E4F7D422B4861383059F580915E
S11306208E0190918F0121E08638920718F087E0BF
S113063090E01FC0833C910518F086E090E019C05B
S11306408136910518F085E090E013C08033910560
S113065018F084E090E00DC08831910518F083E033
S113066090E007C00C9718F082E090E002C080E0B0
S113067090E0382F3770487F432B842F992786B911
S1130680EFBF0895AF92BF92CF92DF92EF92FF92A5
S11306900F931F935B016C01B1E0FB2E0E94DF00FE
S11306A0DC01CB01EF2C96018501AC01BD018F2D3E
S11306B00E94C0001F910F91FF90EF90DF90CF90A8
S11306C0BF90AF90089597E087FF02C0919A01C050
S11306D09198880F909A9098915097FFF5CF08952C
S11306E0982F8FB7F894282F89B78D7F89BF82E020
S11306F088BF80916A00886080936A00992321F002
S113070080916A00846003C080916A008B7F80932B
S11307106A0089B7826089BF2FBF80E090E00895A6
S11307202F923F924F925F926F927F928F929F92FD
S1130730AF92BF92CF92DF92EF92FF920F931F93EB
S11307407B01882309F0E6C0C090C001D090C101AC
S11307508FEFC8168FEFD80609F4DCC070937D01C3
S113076060937C01CB01AA2797FDA095BA2FBC0109
S1130770CD010E94DD193B014C01F7FE08C020E0C9
S113078030E040E857E40E947E193B014C01C60169
S1130790AA2797FDA095BA2FBC01CD010E94DD19AF
S11307A0D7FE06C020E030E040E857E40E947E19FE
S11307B02AE037ED43E25CE30E94491ADC01CB01F5
S11307C020E030E040E252E4BC01CD010E947D19FA
S11307D01B012C0122EA37EE4BE356EBC401B301B3
S11307E00E94491ADC01CB01A4019301BC01CD0193
S11307F00E94491A7B018C0124E533EE45E25DE356
S1130800C401B3010E94491ADC01CB019C01AD0172
S1130810C801B7010E947E19DC01CB0120E030E061
S113082040E850ECBC01CD010E947E195B016C01D3
S113083020E030E048EC51E4C201B1010E947D198E
S11308407B018C012CEA35EC47EA58E3C401B3017F
S11308500E94491ADC01CB012AE037ED43E25CE354
S1130860BC01CD010E947E19DC01CB019C01AD01CC
S1130870C801B7010E94491ADC01CB01A601950108
S1130880BC01CD010E947E196B017C0120E030E0A7
S113089048EC52E40E94EA19181654F40F2EF0E0C2
S11308A0CF2EF0E0DF2EF8ECEF2EF2E4FF2EF02D49
S11308B02DEC3CEC4CEC5DE3C701B6010E94E7195A
S11308C0882354F40F2EFDECCF2EFCECDF2EFCEC31
S11308D0EF2EFDE3FF2EF02D8FB7F894082F11278C
S11308E0C201B1010E94C019DC01CB0190938301C4
S11308F0809382010FBF8FB7F894082F1127C70187
S1130900B6010E94C019DC01CB019093C801809309
S1130910C7010FBF82E00E942B021F910F91FF902D
S1130920EF90DF90CF90BF90AF909F908F907F908B
S11309306F905F904F903F902F90089530E0232F59
S1130940909A80B399279695879580FD31602730DA
S113095009F0330F90982F5F283090F3899A91987B
S1130960909A90988998919A832F99270895899AB3
S1130970919A909A90980895CF93982F8FB7F8945E
S1130980C82F809121018330A1F580910B01891733
S113099081F520E030E080910D018F3F11F421E0DA
S11309A030E0232BD9F48F3F81F0282F3327F9012E
S11309B0E85DFD4F808180930D018F3F11F480939A
S11309C00C018FEF8083C90102C08FEF90E0809308
S11309D0810181E08093210186E009C082E0809357
S11309E00B011092210181E08093200188E00E9494
S11309F08C00CFBF81E090E0CF9108951F93CF93F7
S1130A00DF93182FEB0180E00E94BC04112321F432
S1130A10D093C101C093C00181E00E947502DF91AF
S1130A20CF911F91089580E880935B011092C201D9
S1130A3010928901109224020895A898A99AAA9A5A
S1130A4080E090E008958FB7F894682F772780911D
S1130A505F01909160012CB53DB506B602FE03C05E
S1130A6001962CB53DB5AA27BB2744275527DC01A1
S1130A7099278827822B932BA42BB52B6FBFBC01FE
S1130A80CD010895AF92BF92CF92DF92EF92FF9281
S1130A900F931F93CF93DF930E94DF00FC01EB01C0
S1130AA020917701309178014091790150917A0138
S1130AB07B018C01E21AF30A040B150B10927E01E0
S1130AC080916B0190916C01A0916D01B0916E01C8
S1130AD0E816F9060A071B07C0F0EE24FF24870175
S1130AE0280F391F4A1F5B1F209377013093780129
S1130AF04093790150937A01E0926B01F0926C017A
S1130B0000936D0110936E0163C05C016D01AE181A
S1130B10BF08C00AD10A8601750161E0A61661E02A
S1130B20B60660E0C60660E0D60690F080E0A8163F
S1130B3080E0B80681E0C80680E0D80610F08FEFA8
S1130B4004C0BB27AD2D9C2D8B2D80937E0158C0F6
S1130B5061E8A616B104C104D10430F1C058DF4FD6
S1130B60EF4FFF4FC0937701D0937801E093790161
S1130B70F0937A01C058D040E040F04080E89FEF05
S1130B80AFEFBFEFE80EF91E0A1F1B1FE0926B01C7
S1130B90F0926C0100936D0110936E01E0E8EE2E6B
S1130BA0F12C012D112D14C0280F391F4A1F5B1F72
S1130BB020937701309378014093790150937A011F
S1130BC010926B0110926C0110926D0110926E01E3
S1130BD06E2D82B7282F8C1B8E5F8E1518F0622F16
S1130BE06E5F01C06C0F662309F461E0615000B6CA
S1130BF001FCFDCF61BF82E086BF87B7826087BFFB
S1130C00DF91CF911F910F91FF90EF90DF90CF90E4
S1130C10BF90AF9008950F931F93DC01CB016FB782
S1130C20F894062F11278093770190937801A0936D
S1130C307901B0937A0120936B0130936C01409356
S1130C406D0150936E010E9442050FBF1F910F91D9
S1130C500895AF92BF92CF92DF92EF92FF920F93DB
S1130C601F93CF93DF930E942305FC01EB01809136
S1130C706F0190917001A0917101B0917201A090E7
S1130C800202B0900302C0900402D09005029C01BD
S1130C90AD012A0D3B1D4C1D5D1D79018A01EC1A25
S1130CA0FD0A0E0B1F0BC817D907EA07FB0730F024
S1130CB0281739074A075B0770F005C0281739075A
S1130CC04A075B0728F4C217D307E407F50718F0AF
S1130CD0EE24FF24870121E0E21620E8F20620E05A
S1130CE0020720E0120730F1C050D048EF4FFF4F09
S1130CF0C0936F01D0937001E0937101F09372017E
S1130D00C050D048E040F04080E090E8AFEFBFEF43
S1130D10E80EF91E0A1F1B1FE0920202F092030262
S1130D200093040210930502E12CA0E8FA2E012D91
S1130D30112D14C08A0D9B1DAC1DBD1D80936F0128
S1130D4090937001A0937101B0937201109202020A
S1130D50109203021092040210920502B7012CB5FE
S1130D603DB5C9018C1B9D0B03968E159F0520F084
S1130D70B9016D5F7F4F02C06C0F7D1F6115710556
S1130D8011F461E070E0615070407BBD6ABD80E1A8
S1130D9086BF87B7806187BFDF91CF911F910F9185
S1130DA0FF90EF90DF90CF90BF90AF9008950F9396
S1130DB01F93DC01CB016FB7F894062F11278093A2
S1130DC06F0190937001A0937101B093720120930D
S1130DD002023093030240930402509305020E94DE
S1130DE029060FBF1F910F910895EF92FF920F9361
S1130DF01F93CF938FB7F894C82F0E941701DC017B
S1130E00CB019C01277030702F5F3F4FC1F0C901A7
S1130E10B3E0880F991FBA95E1F7820F931F820FF1
S1130E20931F7C01002711270E942305DC01CB01BD
S1130E30A8019701BC01CD010E94D70606C081E03C
S1130E4090E09093140180931301CFBFCF911F9131
S1130E500F91FF90EF90089597B79F7D97BF90E211
S1130E6096BF882319F08EB5806402C08EB58F7B3F
S1130E708EBD87B7806287BF80E090E008958FB908
S1130E80779BFECF8FB1992708950F931F938B0102
S1130E900E943F07812F99270E943F07802F0E94BD
S1130EA03F0799271F910F910895DF92EF92FF92C8
S1130EB00F931F93CF937A01C22FDD248C01060F69
S1130EC0111D802F80680E943F0716950795802F7B
S1130ED0807C0E943F07CC2341F0F70181917F0180
S1130EE00E943F07D82EC150F6CF8D2D9927CF9160
S1130EF01F910F91FF90EF90DF900895882311F0D8
S1130F006F9A08956F9808951F9310E0812F0E949F
S1130F100701BA9ABB98B99AB89A6C9AC098812F6B
S1130F200E947E07709A6B986A98689881E00E9484
S1130F3007011F9108950F931F93CF93082F8FB725
S1130F40F894282F3327122F80911701882321F03A
S1130F502FBF85E090E021C090911501992341F4C1
S1130F6082E0809315019093030180E090E002C039
S1130F7081E090E09927C82F882311F40E94840708
S1130F808C2F9927282F882329F40093060181E0C8
S1130F90809317011FBF822F9927CF911F910F9123
S1130FA00895CF93C82F0E940D01882311F40E9445
S1130FB0840780911501882359F481E080931501F9
S1130FC0C093C40181E10E948C0080E090E01EC0C7
S1130FD0EC2FFF27E85AFE4F80818F3FA1F4E09168
S1130FE00401EC1781F0809105018F3F19F4C0933F
S1130FF0050104C0FF27E85AFE4FC083C0930401D3
S113100080E090E002C085E090E099279927CF9195
S11310100895CF93282F8FB7F894C82F9091170174
S1131020992369F081E090E002C0880F991F2A9506
S1131030E2F720911601282B2093160108C0209373
S1131040060181E080931701892F0E94D107CFBF49
S113105080E090E0CF910895CF9382E00E949B07B7
S11310609927C82F882319F082E00E9409088C2F41
S11310709927CF9108951F93CF93DF93982F8FB71C
S1131080F894282F3327122F80910601891721F015
S11310902FBF81E090E071C04FEF40930601809133
S11310A01501823009F03FC0909103019923D9F5CD
S11310B020E030E080910501841711F421E030E054
S11310C0232B69F58F3F79F0282F3327F901E85A4C
S11310D0FE4F8081809305018F3F11F440930401FA
S11310E04083C90102C08FEF90E08093C40181E086
S11310F08093150181E10E948C0015C020930601A4
S113110081E090E002C0880F991F4A95E2F780952C
S113111038233093160180E00E94D1072BC04093FE
S11311200301909315010E940D01C82FDD27CC23E4
S113113031F48C2F0E940701C0932302C09A30918E
S113114016013323A9F0209106012F5F632F77271F
S1131150243008F020E0422F5527CB01042E02C092
S1131160959587950A94E2F780FDC8CF2F5FF0CF5D
S1131170109217011FBF80E090E0DF91CF911F9183
S11311800895CF93C1E0C09880917B01882311F02A
S113119085E001C084E00E943F0783FD05C080E034
S11311A00E943F0783FDC0E08FB7F894CC2319F069
S11311B023E030E002C025E030E0309314012093B6
S11311C013018FBFC09ACC2329F082E00E943B0810
S11311D00E94F506CF9108952F923F924F925F920D
S11311E06F927F928F929F92AF92BF92CF92DF9233
S11311F0EF92FF920F931F93CF93DF93CDB7DEB798
S113120024970FB6F894DEBF0FBECDBF1B012C018F
S11312106624AA24BB2467E2862E61E0962EF4019C
S1131220608561FF33C12081318142815381D201C4
S1131230C101821B930BA40BB50BE480F5800681DE
S113124017818E159F05A007B10708F41FC160FF21
S113125003C06D7F608709C02E0D3F1D401F511FC5
S1131260F4012083318342835383F2E0AF16B10447
S1131270C9F183E0A816B10444F4A114B10481F0C7
S113128091E0A916B10481F001C1E3E0AE16B10406
S113129009F45DC0F4E0AF16B10409F4F4C0F6C07B
S11312A080E00E942B02F2C08FB7F894082F112718
S11312B0902F80910B01823099F48091210181302B
S11312C021F486E00E948C0009C0823049F48091A8
S11312D0810180930B0183E0809321010FBFD6C06D
S11312E09FBFD4C08091260290912702853091053A
S11312F0D1F08630910518F4039739F0C7C04E97A2
S113130009F0C4C010922401C1C01092240180913C
S11313100802682F77276115710509F0B7C081E0CD
S11313200E94FE04B3C01092240180910802992700
S1131330009709F4ABC0019709F0A8C081E00E94AE
S1131340BC0460E070E081E00E9490039FC08FB70E
S1131350F8949927C0901801CC2011F08FBF96C043
S11313608FBF80B3992756E0969587955A95E1F7F4
S1131370782E81E078228091860190915501891719
S113138009F47BC0791609F078C084E090E090936A
S11313901A01809319018E010F5F1F4F809107017D
S11313A0909108018983892F9927F801818380917D
S11313B0090290910A028B83892F99278C838FB716
S11313C0F894992721E0D22ED09218018FBF80E1A2
S11313D00E948C0060E070E08DE10E94450724E0EB
S11313E0A8016C2D88E691E00E945507C09AC09828
S11313F08FB7F894E82EFF248D2D0E942C0701E06E
S113140010E01093140100931301C0921201C092D2
S11314100602EFBE8FB7F894E82EFF240E9413054E
S1131420109366010093650189B78F7B89BF80E4BF
S113143088BF8AB780628ABF8AB78F7E8ABF89B71E
S1131440806489BFEFBE8FB7F894082F112780916D
S1131450190190911A01049719F483E00E943F073F
S11314600FBF8FB7F894082F1127C09A80E00E940D
S11314703B080FBF8BE00E948C00709286018FE0C6
S11314800E948C0003C0A898A998AA98639489E044
S113149090E0880E991E0894A11CB11C94E0961546
S11314A008F0BDCE82E00E948C0024960FB6F8941A
S11314B0DEBF0FBECDBFDF91CF911F910F91FF9083
S11314C0EF90DF90CF90BF90AF909F908F907F90E0
S11314D06F905F904F903F902F9008958F929F92BE
S11314E0AF92BF92CF92DF92EF92FF920F931F932E
S11314F0CF93DF938FB7F894C0907F01D090800191
S11315008090590190905A01C0916201D091630179
S1131510AE01465F5F4F2091C5013091C60124178B
S1131520350708F09A018FBF59010894A108B10842
S1131530CA15DB05E8F47E01E80CF91C8E010C0DDC
S11315401D1DC114D10419F0F801808101C080E08F
S11315500E943F078114910411F0F70180832196C2
S11315600F5F1F4F0894E11CF11CCA15DB0548F3FB
S113157081E00E947E078FB7F894982FC114D1049C
S113158031F0CC0EDD1EF60180818FB901C01FB889
S1131590D0936301C09362019FBF80E090E0DF912C
S11315A0CF911F910F91FF90EF90DF90CF90BF905C
S11315B0AF909F908F9008959C018FB7F8949927CE
S11315C03093800120937F0170935A0160935901F5
S11315D05093C6014093C5011092630110926201B9
S11315E08FBF8FB10E946E0A992708950F931F939E
S11315F0C09800912501109126018FE790E0909307
S1131600FA018093F9018091F9010E943F0741E0BA
S113161050E0B80180E090E00E94DC0A1F910F9135
S1131620089582E090E0909366018093650183E0E1
S11316300E949B07882319F40E94F60A089583E008
S11316400E9409080895CF938FB7F894282F332761
S1131650C22F8091650190916601892B11F42FBFEF
S113166026C020912402222341F080E090E0B79B21
S113167002C081E090E0892B49F481B1992776E09A
S1131680969587957A95E1F780FD08C0222319F095
S11316902150209324020E94110B08C081E090E0A5
S11316A0909366018093650110922402CFBFCF917D
S11316B008951F93CF93DF93C0917301D091740168
S11316C08FA19927182F882309F41FE1C0988091CE
S11316D00602811741F0812F9927806E9068BC0122
S11316E085E10E94450710930602188111508EE38C
S11316F090E09093FA018093F9018091F9010E949E
S11317003F07812F9927AC0160E070E0CE010E9471
S1131710DC0ADF91CF911F910895CF93DF93DA0113
S1131720EA018A876E83872F99278F8382E390E06B
S11317308C8360E070E06D83245F8FB7F894482F4A
S1131740552780911C01833021F04FBF81E090E048
S113175059C085E080931C01B0932102A09320021C
S11317608091FD018F5F8093FD01FD0183834FBF55
S11317702193ED0189819927807290708983892F43
S1131780992781839927982F882729813327822BAA
S1131790932B816498688983892F99278183809109
S11317A00101909102018887892F992789876BA766
S11317B068A769A71DA66CA7409120025091210239
S11317C08FB7F894282F3327809113019091140137
S11317D0019711F02FBF14C082E090E090931401A0
S11317E08093130181E080937B01509374014093B3
S11317F073012FBF0E942C08882311F40E94590BF7
S113180080E090E09927DF91CF910895CF92DF9205
S1131810EF92FF920F931F93209100012F3F09F441
S113182020E03327C90101962817390748F480912D
S1131830560190915701892B19F01092000103C0B1
S11318408FEF80930001E0910001EF3FF1F0FF275B
S1131850EE0FFF1FEA5AFE4F00811181F8018285C5
S1131860C82EDD24C8010E94B6007C01C8010E9474
S1131870B1009927282FA801B7018C2D0E948D0B48
S1131880882319F083E10E948C001F910F91FF902F
S1131890EF90DF90CF9008958998919A909A80B3B1
S11318A099279695879580FF03C081E090E008957D
S11318B0909880E090E00895AF92BF92CF92DF922B
S11318C0EF920F931F935B016C010E94DF00DC0118
S11318D0CB0151E0E52E96018501AC01BD0182E00A
S11318E00E94C0001F910F91EF90DF90CF90BF90A6
S11318F0AF9008951F93889A90988998919A89B780
S11319008D7F89BF899A919A909888E0909A90984F
S1131910815087FFFBCF899A919A9098909A9198D9
S11319209098909A919A909880912602909127028B
S11319308F719070909327028093260280912602E3
S11319400E9463030E944C0C882329F01092240106
S113195081E090E048C02091260230912702263091
S1131960310561F12730310538F42330310579F040
S11319702530310561F035C02730310599F02E311D
S1131980310579F56BE070E080E090E008C089985B
S1131990919A0E9470036AEF70E080E090E00E94E8
S11319A05C0C1FC00E949E04182F0E949E040E947B
S11319B0B7041093230184E00E948C008091850178
S11319C00E9463030E944C0C882321F081E08093E1
S11319D0220104C0809185018093230184E00E9448
S11319E08C0080E090E01F910895AF92BF92CF9257
S11319F0DF92EF92FF920F931F93CF93DF93CDB7B4
S1131A00DEB762970FB6F894DEBF0FBECDBF99273D
S1131A10AA27BB27FC01449708F039C4EA5BFF4FAF
S1131A20EE0FFF1F0590F491E02D09948FB7F89401
S1131A30282F332780911001898381E08A8385E0F0
S1131A408B838AE08C8380917501909176018D83DC
S1131A509E838091C0019091C1018F83988780916A
S1131A607C0190917D0189879A878091BE01909134
S1131A70BF018B879C8780918701909188018D8716
S1131A809E872FBF0BE911E05EE0B52EFE01319673
S1131A90D8012B2D01900D922A95E1F70B5010409F
S1131AA08FEF9FEF809396018FEF90E080939701E3
S1131AB049E0C42EC0929A01E0905601F09057017B
S1131AC0E114F10409F0E3C31093570100935601A4
S1131AD08AE180939001D09000013FEFD31609F082
S1131AE0D6C3C8010E94B600109200012B2DA80194
S1131AF0BC018C2D0E948D0B882309F4C8C3D0929D
S1131B000001F0925701E0925601C1C34091540183
S1131B10442339F58FB7F894282F3327E0907701C1
S1131B20F09078010091790110917A0180916B0114
S1131B3090916C01A0916D01B0916E01E80EF91EB7
S1131B400A1F1B1F2FBF8091FE019091FF01A091DE
S1131B500002B09101029C01AD01C801B7010E94CD
S1131B600B060E94DF00DC01CB01BC01CD0140C0AB
S1131B700E94DF007B018C013FEFA32E3FEFB32EC9
S1131B803FEFC32E3FE7D32E70E087B78D7F87BF2B
S1131B90E7E2F1E064E0808581FF1CC080819181EF
S1131BA0A281B381A8019701281B390B4A0B5B0B57
S1131BB0DA01C9012481358146815781281B390BFB
S1131BC04A0B5B0B2A153B054C055D051CF45901BA
S1131BD06A0171E06150399667FFDDCF772309F41C
S1131BE056C31A141B041C041D042CF0C801B701AD
S1131BF00E94EC084CC3A092FE01B092FF01C09277
S1131C000002D092010281E080935401A601950163
S1131C10C801B7010E940B063AC3809124018823AE
S1131C2009F435C3809141018D7F809341010E9465
S1131C309E049927182F00270E949E049927082B99
S1131C40192B0E949E040E94B70480912602909151
S1131C5027028330910519F0059761F018C310929B
S1131C60240180910802882309F011C3B8010E945D
S1131C70FE040DC310922401809108029927009755
S1131C8009F405C3019709F002C381E00E94BC0472
S1131C90B80180E08AC080912602909127028630A4
S1131CA0910531F0079709F0F2C210922401EFC2B6
S1131CB01092240110922201EAC280911F01813006
S1131CC031F46BE070E080E090E00E9442038FB753
S1131CD0F894992710921F011092200136C18FB7F2
S1131CE0F894282F33279091810190930B0183E07E
S1131CF0809321012FBF892F9927009719F001970D
S1131D0069F1C5C280910E01882319F484E090E042
S1131D1015C020912401222319F085E090E00EC023
S1131D2081E08093240183E090E0909327028093E4
S1131D302602209308020E947A0C9927082F112763
S1131D40002309F4A4C280E00E94BC04002321F40F
S1131D501092C1011092C00181E0AEC021E08091D7
S1131D600E01882319F484E090E014C080912401CA
S1131D70882319F085E090E00DC02093240185E0CC
S1131D8090E09093270280932602209308020E94F9
S1131D907A0C9927082F1127002309F478C281E0CF
S1131DA00E94BC0460E070E0802F0E9490036FC228
S1131DB06BE070E080E090E00E94420368C2889883
S1131DC090988998919885E088C18FB7F894282FC6
S1131DD033279091840190930A0183E080931D013D
S1131DE02FBF892F99278130910571F08230910599
S1131DF01CF4892B21F008C0029721F005C0149A25
S1131E001C9A02C0D79ADF9A80910A0199278130DF
S1131E10910579F0823091051CF4892B21F037C2A9
S1131E20029759F034C281E08093C3011092C90132
S1131E300AC081E08093C30104C081E08093C301A0
S1131E4082E08093C9010E94B20221C21092C301B0
S1131E508091C901E0905D01F0905E01082F112787
S1131E600130110569F00230110524F40115110542
S1131E7029F00BC00230110529F007C080E003C02F
S1131E8081E001C082E00E94B20101301105B9F085
S1131E90023011051CF4012B29F0F9C1023011059F
S1131EA0C1F0F5C196E0F694E7949A95E1F7F092C3
S1131EB07601E092750180E00E947502E8C186E037
S1131EC0F694E7948A95E1F7F092BF01E092BE019F
S1131ED0DEC106E0F694E7940A95E1F7F0928801F2
S1131EE0E092870181E00E942B02D1C183E001C00E
S1131EF081E080931C01CBC18FB7F89499278FBFE1
S1131F0083E080931C012091200230912102809172
S1131F100001082F1127F801E00FF11FEA5AFE4FC4
S1131F20808191818217930709F0B1C110821182D7
S1131F300E94060C012B09F0AAC10E948200A7C1CD
S1131F408FB7F8949927109264018FBFA0C18FB7FF
S1131F50F894C82EDD2480911801882379F40E9416
S1131F60DF00DC01CB0111E0E12E01E010E020E014
S1131F7030E0AC01BD0183E00E94C000CFBE87C148
S1131F808FB7F894282F332780911801882329F0DC
S1131F9080914A018D7F80934A012FBF78C18FB70A
S1131FA0F894282F33279091C4019093030182E081
S1131FB0809315012FBF992309F069C18FB7F89455
S1131FC09927209106018FBF33272130310509F469
S1131FD053C0223031051CF4232B51F058C1223058
S1131FE0310509F47DC02330310509F491C04FC196
S1131FF0C0988FB7F894E82EFF248091190190912E
S11320001A010297B9F583E090E090931A01809346
S1132010190168E170E08DE10E94450711E0109319
S113202055011092180180B39927A6E096958795DB
S1132030AA95E1F78123809386018FE00E948C00AA
S1132040812F0E943F076FE772E08CE10E944507F1
S11320509091090185E0989FC0011124825D9E4FF3
S11320609064BC0188E10E94450762EF7AE281E155
S11320700E944507EFBE0BC18FB7F894282F332772
S11320804091090180910701909108018F87892F60
S11320909927888B8091090290910A02898B892F54
S11320A099278A8B2FBFC09885E0489FC0011124CF
S11320B0825D9E4F9064BC0188E10E94450724E044
S11320C0AE01415F5F4F60E088E691E00E945507F2
S11320D0C09A81E00E943B088EE00E948C00D7C029
S11320E08FB7F8949927209113018FBF332722309B
S11320F0310521F02430310521F006C00E94590B2E
S1132100C6C00E94C108C3C082E00E943B08BFC091
S11321100E94F60ABCC0A0912501B09126018C91C1
S11321209D01280F311DF9018081881F8827881F90
S1132130FD0182A7F90182919F012F5F3F4FFD01AD
S113214080A7F90180818F77FD0181A7C0902501C7
S1132150D09026018601055F1F4FC6010E94B6007C
S11321609C0180910101909102012817390721F007
S11321702F5F3F4F09F074C0F6018285893009F062
S11321806FC023852536D1F4F8018181833009F0AD
S113219067C01281113009F063C00E941D050E94BE
S11321A0DF00DC01CB01E12E08E213E220E030E0A5
S11321B0AC01BD0184E00E94C00052C0332780916D
S11321C01001909111012817390709F049C0F8014D
S11321D0818199278130910519F0029749F03EC019
S11321E0F80182818530D1F580E00E948C0036C0F0
S11321F0F80182818731C9F480910F01813071F136
S1132200A89AA998AA9A0E94DF00DC01CB0171E088
S1132210E72E08E213E220E030E0AC01BD0184E0E7
S11322200E94C000E0920F0119C08831B9F4809176
S11322300F01882399F00E941D050E94DF00DC0134
S1132240CB0161E0E62E08E213E220E030E0AC01CD
S1132250BD0184E00E94C00010920F010E94820020
S1132260D0922601C09225010E94230B10C08091B8
S113227000019927FC01E80FF91FEA5AFE4F10826A
S11322801182892B11F40E9482000E94060C62962E
S11322900FB6F894DEBF0FBECDBFDF91CF911F9173
S11322A00F91FF90EF90DF90CF90BF90AF90089583
S11322B0809107028F3FD1F090910702809107022D
S11322C0E82FFF27E55FFD4F80818093070280910F
S11322D007028F3F11F480932202892F9927FC0172
S11322E0E55FFD4F2FEF20839C0102C02FEF30E00C
S11322F02F3F19F480E090E00895822F0E94F50C9E
S113230081E090E00895CFEFD0E1DEBFCDBF8FB77D
S1132310F894182F44E150E06FEF70E08BE092E006
S11323200E9476198FEF809307028093220281E046
S11323308EBD88E080BF83E083BF2CB53DB54AE7FE
S11323408CB59DB58217930708F441509C01442332
S1132350B9F792B782B78917E9F32CB53DB592B7AF
S113236082B78917E9F38CB59DB5821B930B409610
S113237065E0969587956A95E1F790938F01809330
S11323808E0113BE83B78EBD8EB580BF12BE1DBC39
S11323901CBC8FEF86BF86B780937C0080B7282F44
S11323A033272770307021153105C1F7D29AD19A9D
S11323B0D09ADA9AD99AD89A25BB8FEF84BB3DBDBF
S11323C02CBD87B7846087BF8EB5887F84608EBD3F
S11323D016B880B7886080BF80E285BF0E9458111C
S11323E08823E1F780911001909111010196AA27A9
S11323F0BB278093670190936801A0936901B09310
S11324006A018FEF8093580180911C01882319F48D
S113241081E080931C01B89AD69AD59A80910101E3
S11324209091020190930A02809309028E98B89ABF
S11324308C988AEC91E09093260180932501109268
S113244061018FEF9FEF909329028093280200B6D9
S113245002FCFDCF12BE87B7816087BF83B7887F38
S1132460836000B600FCFDCF83BF0E945811C82FC3
S1132470DD27CC23D1F71FBF78948FB7F894282F8A
S113248033278FEF9FEF9093830180938201909382
S1132490C8018093C701909376018093750190934E
S11324A0BF018093BE019093C1018093C0019093BA
S11324B07D0180937C0190938801809387012FBFD5
S11324C0A09AA19AA29AAA98A49AA49AA69AAE9813
S11324D0C093F801C0935C010E94DF00DC01CB01D2
S11324E0EC2E08EE13E020E030E0AC01BD018C2FAF
S11324F00E94C00080911C01813049F582E08093E4
S11325001C010E941701DC01CB018093FD018FB7F0
S1132510F894282F33278091190190911A01892B5F
S113252011F02FBF14C081E090E090931A018093C2
S113253019012FBFDD9A0E942305DC01CB0124E1A0
S113254030E040E050E0BC01CD010E94D7068FB7D7
S1132550F894482F4AC087B79927887B892B41F480
S113256080917D00282F33272B7F2115310519F009
S113257020E030E02AC06F9928C08AB1807C29F518
S113258080919A00807C09F5379B03C021E030E0FC
S11325901CC087B7992783709070892BA1F080B7EE
S11325A0992787709070892BD1F781B792B7891BCF
S11325B08C3018F082B7853F18F022E030E005C077
S11325C023E030E002C025E030E0E5E02E1708F417
S11325D0E22F85B7837EFF27EC54FF4F9491892B1C
S11325E0806285BF78948895F894809107028F3F24
S11325F0C9F09091070280910702E82FFF27E55F59
S1132600FD4F808180930702809107028F3F11F470
S113261080932202892F9927FC01E55FFD4F2FEF5C
S1132620208302C08FEF90E08F3F09F494CF4FBF17
S11326300E94F50C8CCF83B783BF00B600FCFDCF9E
S113264008951F920F920FB60F9211242F933F9368
S11326504F935F936F937F938F939F93AF93BF93A6
S1132660CF93EF93FF930E941B1387B78D7F87BF90
S113267078948FB7F894C82F80916B0190916C0176
S1132680A0916D01B0916E010097A105B10521F4EF
S113269081E00E948C0002C00E944205CFBFFF91DE
S11326A0EF91CF91BF91AF919F918F917F916F9156
S11326B05F914F913F912F910F900FBE0F901F90FC
S11326C018951F920F920FB60F9211242F933F93D8
S11326D04F935F936F937F938F939F93AF93BF9326
S11326E0EF93FF930E941B1380918A0190918B01B9
S11326F0A0918C01B0918D010196A11DB11D809313
S11327008A0190938B01A0938C01B0938D018091E9
S11327107E01882339F0815080937E01882311F44F
S11327200E944205FF91EF91BF91AF919F918F91CC
S11327307F916F915F914F913F912F910F900FBEB9
S11327400F901F9018951F920F920FB60F9211249D
S11327500F900FBE0F901F9018951F920F920FB6F7
S11327600F9211242F933F934F935F936F937F9313
S11327708F939F93AF93BF93EF93FF9389B78D7F0D
S113278089BF83E00E948C00FF91EF91BF91AF91CC
S11327909F918F917F916F915F914F913F912F9175
S11327A00F900FBE0F901F9018951F920F920FB6A7
S11327B00F9211240F900FBE0F901F9018951F9227
S11327C00F920FB60F9211240F900FBE0F901F900F
S11327D018951F920F920FB60F9211240F900FBEEF
S11327E00F901F9018951F920F920FB60F921124FD
S11327F00F900FBE0F901F9018951F920F920FB657
S11328000F9211242F933F934F935F936F937F9372
S11328108F939F93AF93BF93EF93FF938091650141
S113282090916601019719F40E94110B05C08091E3
S113283024028F5F80932402FF91EF91BF91AF91A7
S11328409F918F917F916F915F914F913F912F91C4
S11328500F900FBE0F901F9018951F920F920FB6F6
S11328600F9211240F900FBE0F901F9018951F9276
S11328700F920FB60F9211242F933F934F935F93B0
S11328806F937F938F939F93AF93BF93EF93FF9334
S113289064B175B178948FB7F894282F3327809159
S11328A01F02482F469541702FBF282F217080FDAD
S11328B01CC033988091C30199278130910519F088
S11328C0029759F028C0442351F070935E0160933D
S11328D05D018AE00E948C001EC0442319F40E940A
S11328E0B20219C02093C30116C08FB7F894992778
S11328F08FBF8FB7F894482F552786B180618777AB
S1132900282F332726B98F7B282F332726B98068B1
S1132910992786B94FBFFF91EF91BF91AF919F91D6
S11329208F917F916F915F914F913F912F910F9074
S11329300FBE0F901F90189578941F920F920FB6A8
S11329400F9211242F933F934F935F936F937F9331
S11329508F939F93AF93BF93CF93EF93FF9387B7D7
S11329608F7E87BF78948FB7F894C82F8091020226
S113297090910302A0910402B09105020097A10571
S1132980B10509F053C08091130190911401843072
S1132990910541F18530910518F4039721F034C075
S11329A0079739F131C080B3992776E096958795DA
S11329B07A95E1F780FF13C084E090E090931401CE
S11329C0809313010E942305DC01CB0127E030E052
S11329D040E050E0BC01CD010E94D70615C00E9422
S11329E0F50612C00E942C08882371F40E94C108C5
S11329F00BC081E090E09093140180931301109236
S1132A001B018DE00E948C008091190190911A01A4
S1132A10019771F482E090E090931A018093190178
S1132A20DE98DE9A80E00E94090802C00E9429060E
S1132A30CFBFFF91EF91CF91BF91AF919F918F91B4
S1132A407F916F915F914F913F912F910F900FBEA6
S1132A500F901F90189578941F920F920FB60F92B3
S1132A6011240F900FBE0F901F90189578941F9209
S1132A700F920FB60F9211240F900FBE0F901F905C
S1132A80189578941F920F920FB60F9211241F93EA
S1132A902F933F934F935F936F937F938F939F9362
S1132AA0AF93BF93CF93DF93EF93FF93CCB5DDB593
S1132AB080E286BF8FB7F894182F8091130190910C
S1132AC014018530910519F0069739F157C080E05B
S1132AD00E942C0782E00E943B0887B78F7E87BF45
S1132AE086E090E09093140180931301E0917301C8
S1132AF0F09174018181992787709070019721F476
S1132B00C5A78D2F992784A780B39927A4E096950C
S1132B108795AA95E1F780FD77C081E00E942C0794
S1132B20E0917301F0917401818185FF13C087E006
S1132B3090E090931401809313010E942305DC011B
S1132B40CB0120E830E040E050E0BC01CD010E9420
S1132B50D7060BC081E090E0909314018093130199
S1132B6010921B018DE00E948C0080B39927F4E041
S1132B7096958795FA95E1F780FF46C080911201FA
S1132B80882351F50E942C074091C2014830A0F4DB
S1132B9080918901840F912D911D9C01887F9370F0
S1132BA0281BE22FFF27EE0FFF1FE65DFD4FC083BA
S1132BB0D1834F5F4093C20181E080931201D0938F
S1132BC0FC01C093FB0180B39927E4E096958795B7
S1132BD0EA95E1F780FD18C0809112018823A1F0E5
S1132BE081E00E942C07109212018091FB019091C8
S1132BF0FC01C81BD90B2A9738F48091C2018823A1
S1132C0019F081508093C2011FBFFF91EF91DF91B2
S1132C10CF91BF91AF919F918F917F916F915F9170
S1132C204F913F912F911F910F900FBE0F901F90C6
S1132C30189578941F920F920FB60F9211242F9328
S1132C403F938F939F938FB7F894282F33278091C6
S1132C505F019091600101969093600180935F0100
S1132C602FBF9F918F913F912F910F900FBE0F9087
S1132C701F9018951F920F920FB60F921124EF9286
S1132C80FF920F931F932F933F934F935F936F93F1
S1132C907F938F939F93AF93BF93CF93DF93EF93E0
S1132CA0FF938FB1282F3327E0915901F0915A01F6
S1132CB0309739F08091620190916301E80FF91F18
S1132CC02083809162019091630101969093630146
S1132CD08093620180E00E947E072091620130911E
S1132CE063018091C5019091C6012817390718F432
S1132CF00E946E0A35C1E0905901F0905A01109279
S1132D005A01109259011092800110927F01109281
S1132D10C6011092C50110926301109262018FB135
S1132D208091F9019091FA012091F90186FFD3C0B5
S1132D302F7B822F99278E33910509F411C1CF97E8
S1132D4009F00EC1C0912501D0912601188180910E
S1132D506501909166018230910521F0039709F491
S1132D6044C0B4C083E090E0909366018093650111
S1132D70412F55279A012F5F3F4F60915B01862FAA
S1132D809927821793077CF40E941305C09AC09870
S1132D9088E00E943F0788E00E943F07C09A83E0D2
S1132DA00E943B0890C080E090E0B79B02C081E0A5
S1132DB090E0892B69F481B1992726E0969587954F
S1132DC02A95E1F780FD04C0611B615060935B01AB
S1132DD0193220F4BE016F5F7F4F02C060E070E0E3
S1132DE080E090E00E94DC0ABBC0C09A83E00E94AD
S1132DF03B088091C201882309F11B3028F180919E
S1132E008901E82FFF27EE0FFF1FE65DFD4F80814C
S1132E1091818DA7892F99278CA780918901992762
S1132E2001969C01287F3170821B930B809389014A
S1132E308091C20181508093C20106C08FEF9FEF41
S1132E408DA78FEF90E08CA7FE01E10FF11D80812B
S1132E5087FF39C0EF28B9F169816770E0912501D6
S1132E60F0912601623049F5A0917301B09174018B
S1132E7020818091130190911401079721F5ED01B0
S1132E809B8183818917F9F487B78F7E87BF81E09F
S1132E908BA7E20FF11D8291319688A780818F77ED
S1132EA089A781E090E0909314018093130110921C
S1132EB01B018DE00E948C0006C0613021F482E188
S1132EC00E948C004DC00E94230B4AC0C09A83E02C
S1132ED00E943B0845C02E3309F042C0C09A80913D
S1132EE0130190911401089739F481E090E09093D4
S1132EF014018093130134C080917B01882349F429
S1132F0084E090E090931401809313010E94C1081F
S1132F1027C082E00E943B0883E090E09093140174
S1132F20809313010E941701DC01CB018F71907013
S1132F3001969C01C3E0220F331FCA95E1F7280FC5
S1132F40391F280F391F7901002711270E942305F3
S1132F50DC01CB01A8019701BC01CD010E94D70679
S1132F60FF91EF91DF91CF91BF91AF919F918F919D
S1132F707F916F915F914F913F912F911F910F918D
S1132F80FF90EF900F900FBE0F901F901895A0E345
S1132F90B0E0EDECF7E10C94B91A222E332E442E56
S1132FA0552E662E772E882E992E2A2D3B2DA8E09D
S1132FB0FE013196AA2E1192AA94E9F729823A8247
S1132FC04B825C826D827E828F829886FE01399666
S1132FD0BA2E1192BA94E9F729873A87CB86DC8610
S1132FE0ED86FE860F87188BFE0171961192AA95C5
S1132FF0E9F7C980DA80EB80FC80C9A6DAA6EBA6E3
S1133000FCA6870176018FEF9FEFA0E0B0E0E822F5
S1133010F9220A231B23A9A4BAA4CBA4DCA4160175
S11330204424552489859A85AB85BC858DA79EA7A4
S1133030AFA7B8AB5C016D018FEF9FEFA0E0B0E0EC
S1133040A822B922CA22DB228DA59EA5AFA5B8A9C4
S11330503D0188249924C801B701A60195010E9465
S11330609A1A69A37AA38BA39CA3C801B701A401EC
S113307093010E949A1A6DA37EA38FA398A7C201FD
S1133080B101A60195010E949A1A7B018C01C2012B
S1133090B101A40193010E949A1A9B01AC01A9A059
S11330A0BAA0CBA0DCA0C601AA27BB27ADA0BEA0B6
S11330B0CFA0D8A4A80EB91ECA1EDB1EAE0CBF1C1E
S11330C0C01ED11EADA2BEA2CFA2D8A6AE14BF040C
S11330D0C006D10620F4205030404F4F5F4FCDA0A2
S11330E0DEA0EFA0F8A4C701AA27BB27820F931F75
S11330F0A41FB51F8D8F9E8FAF8FB8A3A601332752
S1133100222789A19AA1ABA1BCA1A070B070280FFD
S1133110391F4A1F5B1F298F3A8F4B8F5C8FA98CF5
S1133120BA8CCB8CDC8CED8CFE8C0F8D18A1ED8AC7
S1133130FE8A0F8B188F2D853E854F85588969A58A
S11331407AA58BA59CA50E949A1A3B014C018D81FE
S11331509E81AF81B885BC01CD012DA53EA54FA5AB
S113316058A90E949A1ADC01CB01680E791E8A1EA6
S11331709B1E8D899E89AF89B88D860D971DA81DCC
S1133180B91D8D8B9E8BAF8BB88F6D897E898F898E
S1133190988D2A2D3B2D4C2D5D2DE2E1E0960C946B
S11331A0D51A8F929F92AF92BF92CF92DF92EF92F5
S11331B0FF920F93CF93DF93CDB7DEB768970FB627
S11331C0F894DEBF0FBECDBFE82E002349F4298B4F
S11331D03A8B4B8B5C8B6D8B7E8B8F8B988F6CC0FB
S11331E088E0FE01319611928A95E9F729833A83A2
S11331F04B835C836D837E83EF82988740E2401B20
S113320014160CF041C08D819E81AF81B8856C018C
S11332107D0104C0CC0CDD1CEE1CFF1C4A95D2F7CA
S1133220202F332727FD3095022E04C0B695A7958D
S1133230979587950A94D2F78D879E87AF87B88B29
S113324089819A81AB81BC8104C0B695A795979575
S113325087952A95D2F78C299D29AE29BF2989877C
S11332609A87AB87BC8729853A854B855C856D85B4
S11332707E858F859889298B3A8B4B8B5C8B6D8BE4
S11332807E8B8F8B988F18C01D861E861F86188A8A
S1133290842F992787FD909522273327281B390BE4
S11332A08D819E81AF81B88504C0B695A795979509
S11332B087952A95D2F7D3CF29893A894B895C8996
S11332C06D897E898F89988D68960FB6F894DEBFD4
S11332D00FBECDBFDF91CF910F91FF90EF90DF90A4
S11332E0CF90BF90AF909F908F900895DC0101C064
S11332F06D9341505040E0F708955058192EA6D0D0
S113330001D08CC0BA176207730784079507B1F11F
S113331088F40EF410940B2EBA2FA02D062E622FD3
S1133320202D072E732F302D082E842F402D092E8B
S1133330952F502DFF275523B9F0591B49F0573EBF
S113334098F0469537952795A795F0405395C9F77A
S113335076F0BA0F621F731F841F30F48795779538
S11333606795B795F040939517FA0F2E0895BF1BF4
S1133370BB27BA0B620B730B840BF6CFDEF683C04C
S113338097FB70D09F3738F0FEE9F91B982F872FF1
S1133390762F6B2F05C074C09695879577956795A2
S11333A0F150D0F73EF490958095709561957F4FDC
S11333B08F4F9F4F0895E89403C097FB0EF4F3DFFB
S11333C0B62F672F782F892F9EE9002427C00ED0AF
S11333D05EF004C00BD026F001C008D019F020F430
S11333E08FEF089580E0089581E0089597FB092EFA
S11333F0052600F868942DD0E89407FC07C06217EE
S113340073078407950721F008F4009407949894AF
S113341008959A95BB0F661F771F881F112499235F
S1133420A1F08823B2F79F3F59F0BB0F48F421F471
S1133430002011F460FF04C06F5F7F4F8F4F9F4FD8
S1133440881F9795879597F908951AC0052E092620
S113345007FA440F551F5F3F79F0AA27A51708F014
S113346051E04795880F991F9F3F31F0BB27B9174B
S113347008F091E0879508959F919F91112457C07A
S113348066277727882799270895592F482F372F9C
S1133490262FDCDF01D0C2CF992339F0552329F040
S11334A09F575F57950F13F4CAF1EDCF91589F3F83
S11334B0E1F3A62F00241124BB2766275527F8E043
S11334C0A69520F4020E131EB41F651F220F331F8E
S11334D0441F551FFA95A1F7F8E0E72F7727F8E086
S11334E0E69520F4130EB41F651F7A1F330F441F93
S11334F0551FAA1FFA95A1F7F82F8827F69520F4EF
S1133500B40F651F7A1F8E1F440F551FAA1FEE1F8D
S1133510FF23A1F788231AF4939539F408C0000C0B
S1133520111CBB1F661F771F881F012808959FEF7A
S113353080EC0895629FD001739FF001829FE00D9B
S1133540F11D649FE00DF11D929FF00D839FF00D1E
S1133550749FF00D659FF00D9927729FB00DE11DCA
S1133560F91F639FB00DE11DF91FBD01CF011124A7
S113357008952F923F924F925F926F927F928F9213
S11335809F92AF92BF92CF92DF92EF92FF920F93EE
S11335901F93CF93DF93CDB7DEB7CA1BDB0B0FB6F8
S11335A0F894DEBF0FBECDBF09942A8839884888B5
S11335B05F846E847D848C849B84AA84B984C8844B
S11335C0DF80EE80FD800C811B81AA81B981CE0F42
S11335D0D11D0FB6F894DEBF0FBECDBFED01089527
S11335E0FF0100FFFFFFFF32001A0302FFFF01018A
S10535F00100D4
S9030000FC
