:100000000C945D000C94BC130C94C6130C94EE136A
:100010000C94F8130C9402140C940C140C941614F5
:100020000C9446140C947A000C947A000C945A1593
:100030000C94B5140C9444150C9432160C943A1389
:100040000C947A130C9453160C947A000C947A0046
:100050000C947A000C9450140C947A000C947A004E
:100060000C944F150C947A000C947A000C947A003E
:100070000C947A000C947A000C947A000C947A0018
:100080000C947A000C947A000C947A00560DC60DEC
:10009000F80D4D0E8B0E9D0EAF0E180F1F0F250F76
:1000A000660FB60FB80FBC0FE00FE70F00100F1070
:1000B000CB10561100081C18141011241FBECFEFCE
:1000C000D0E1DEBFCDBF11E0A0E0B1E0E2E1F6E3B8
:1000D00000E00BBF02C007900D92A231B107D9F723
:1000E00012E0A2E1B1E001C01D92A933B107E1F72E
:1000F0000C94A2110C9400008FB7F89499270895DE
:100100008FBF08958FB7F894282F33278BB391E0D2
:1001100089278BBB2FBF0895982F8FB7F894282F6E
:10012000E92FFF27E65FFD4F80818F3FB1F480917B
:100130002102891791F0809106028F3F19F4909364
:10014000060207C080912102E82FFF27E65FFD4FDE
:1001500090839093210280E001C085E02FBF992712
:100160000895FC0180818C5099270895FC018781B6
:100170009927382F222786819927822B932B089540
:10018000EF920F931F93AE2D99E0899FF0011124F8
:10019000E95DFE4F4083518362837383048315833B
:1001A00026833783A17080858E7F8A2B826080872B
:1001B00082E00E948C001F910F91EF900895CF93E1
:1001C000DF938FB7F894682F7727A0918A01B091B9
:1001D0008B01C0918C01D0918D0182B706B600FED3
:1001E00004C01196C11DD11D82B7282F3327442783
:1001F000552788279A2FAB2FBC2F822B932BA42B0C
:10020000B52B6FBFBC01CD01DF91CF91089588233D
:1002100011F06E9A08956E980895809115018823C3
:1002200019F480E090E0089581E090E008952F9225
:100230003F924F925F926F927F928F929F92AF9276
:10024000BF92CF92DF92EF92FF920F931F93CF93C3
:10025000DF93CDB7DEB72A970FB6F894DEBF0FBE97
:10026000CDBF8FB7F894282F332729873A8720905E
:10027000690130906A0140906B0150906C016624D6
:10028000AEE4AA2EF3E8BF2EC62CD62CE62CF62C14
:10029000062D162D222D332D442D552D662D762D10
:1002A000862D962D0E94E01729833A834B835C8329
:1002B0006D837E838F839887822E932EA42EB52EF6
:1002C00024013501769467945794479400E20E9484
:1002D000EA18A22EB32EC42ED52EC601B501640D88
:1002E000751D861D971D97FF05C09F776F5F7F4F18
:1002F0008F4F9F4F6093690170936A0180936B01E8
:1003000090936C0139853FBF2A960FB6F894DEBFF3
:100310000FBECDBFDF91CF911F910F91FF90EF9056
:10032000DF90CF90BF90AF909F908F907F906F9015
:100330005F904F903F902F900895282F8695869537
:100340008695E82FFF27EE59FE4F277081E090E059
:1003500002C0880F991F2A95E2F720812823822F57
:1003600099270895FF920F931F93CF93DF93082F40
:100370008FB7F894F82E80911D01833009F062C088
:1003800080910A01801709F05DC080916201882385
:1003900009F03EC081E090E0892BE9F510911E0143
:1003A000C12FDD272196C330D10511F4C0E0D0E084
:1003B0008C2F0E949D01882381F4812F9927C817D3
:1003C000D90781F78FEF90E08093840181E08093DB
:1003D0001D0189E00E948C0024C08C2F8695869593
:1003E0008695E82FFF27EE59FE4F2C2F277081E0CE
:1003F00090E002C0880F991F2A95E2F7982F9095F8
:10040000808189238083C0931E018C2F9927DCCFA4
:1004100080E090E0C1CF83E080930A0110921D013B
:100420003798802F99278130910561F082309105AE
:100430001CF4892B21F006C0029719F003C01C9808
:1004400001C0DF98FFBE81E090E0DF91CF911F9166
:100450000F91FF9008951F93CF93DF93C82F8FB70D
:10046000F894282F3327122F80911D01882301F142
:100470008C2F0E949D018823B1F48C2F8695869540
:100480008695E82FFF27EE59FE4FC77081E090E078
:1004900002C0880F991FCA95E2F72081282B20837C
:1004A00080E090E002C085E090E01FBF992719C06E
:1004B00081E080931D01C09384012FBF8FB7F89412
:1004C0009927379A8FBF8FB7F894C82FDD2780916F
:1004D0000A01833019F489E00E948C00CFBF80E0CC
:1004E00090E0DF91CF911F910895982F8FB7F894E6
:1004F000282F3327422F80912101882301F1E92FF2
:10050000FF27E95DFD4F80818F3FA1F4E0910C0151
:10051000E91781F080910D018F3F19F490930D013F
:1005200004C0FF27E95DFD4F908390930C0180E0AC
:1005300090E002C085E090E04FBF9927089541E028
:1005400040932101909383012FBF80912001882344
:1005500021F487E00E948C0002C040931F0180E0DC
:1005600090E008952091C501822F9927813091054F
:1005700059F0823091051CF4009731F004C00297C5
:1005800011F487E001C08FE1582F822F9927813025
:10059000910541F0823091051CF4892B19F004C0BB
:1005A000029711F428E001C020E033278FB7F894B8
:1005B000E82F80911E028E7F80931E02322F27B17A
:1005C00060E070E0922F929596959695937080E0FA
:1005D000891749F4852F8850863118F42F715217E6
:1005E00011F461E070E0862F880F20911E022D7FAC
:1005F000282B852F8F71982F990F990F2378292BEE
:1006000020931E028062992787B9406C2170229541
:10061000220F207E4F7D422B4861383059F5809162
:100620008E0190918F0121E08638920718F087E0C3
:1006300090E01FC0833C910518F086E090E019C05F
:100640008136910518F085E090E013C08033910564
:1006500018F084E090E00DC08831910518F083E037
:1006600090E007C00C9718F082E090E002C080E0B4
:1006700090E0382F3770487F432B842F992786B915
:10068000EFBF0895AF92BF92CF92DF92EF92FF92A9
:100690000F931F935B016C01B1E0FB2E0E94DF0002
:1006A000DC01CB01EF2C96018501AC01BD018F2D42
:1006B0000E94C0001F910F91FF90EF90DF90CF90AC
:1006C000BF90AF90089597E087FF02C0919A01C054
:1006D0009198880F909A9098915097FFF5CF089530
:1006E000982F8FB7F894282F89B78D7F89BF82E024
:1006F00088BF80916A00886080936A00992321F006
:1007000080916A00846003C080916A008B7F80932F
:100710006A0089B7826089BF2FBF80E090E00895AA
:100720002F923F924F925F926F927F928F929F9201
:10073000AF92BF92CF92DF92EF92FF920F931F93EF
:100740007B01882309F0E6C0C0908701D090880122
:100750008FEFC8168FEFD80609F4DCC070939201B2
:1007600060939101CB01AA2797FDA095BA2FBC01F8
:10077000CD010E94F6193B014C01F7FE08C020E0B4
:1007800030E040E857E40E9497193B014C01C60154
:10079000AA2797FDA095BA2FBC01CD010E94F6199A
:1007A000D7FE06C020E030E040E857E40E949719E9
:1007B0002AE037ED43E25CE30E94621ADC01CB01E0
:1007C00020E030E040E252E4BC01CD010E949619E5
:1007D0001B012C0122EA37EE4BE356EBC401B301B7
:1007E0000E94621ADC01CB01A4019301BC01CD017E
:1007F0000E94621A7B018C0124E533EE45E25DE341
:10080000C401B3010E94621ADC01CB019C01AD015D
:10081000C801B7010E949719DC01CB0120E030E04C
:1008200040E850ECBC01CD010E9497195B016C01BE
:1008300020E030E048EC51E4C201B1010E94961979
:100840007B018C012CEA35EC47EA58E3C401B30183
:100850000E94621ADC01CB012AE037ED43E25CE33F
:10086000BC01CD010E949719DC01CB019C01AD01B7
:10087000C801B7010E94621ADC01CB01A6019501F3
:10088000BC01CD010E9497196B017C0120E030E092
:1008900048EC52E40E94031A181654F40F2EF0E0AC
:1008A000CF2EF0E0DF2EF8ECEF2EF2E4FF2EF02D4D
:1008B0002DEC3CEC4CEC5DE3C701B6010E94001A44
:1008C000882354F40F2EFDECCF2EFCECDF2EFCEC35
:1008D000EF2EFDE3FF2EF02D8FB7F894082F112790
:1008E000C201B1010E94D919DC01CB019093F7013B
:1008F0008093F6010FBF8FB7F894082F1127C70117
:10090000B6010E94D919DC01CB0190935701809365
:1009100056010FBF82E00E942B021F910F91FF90A2
:10092000EF90DF90CF90BF90AF909F908F907F908F
:100930006F905F904F903F902F90089530E0232F5D
:10094000909A80B399279695879580FD31602730DE
:1009500009F0330F90982F5F283090F3899A91987F
:10096000909A90988998919A832F99270895899AB7
:10097000919A909A90980895CF93982F8FB7F89462
:10098000C82F809121018330A1F580910B01891737
:1009900081F520E030E080910D018F3F11F421E0DE
:1009A00030E0232BD9F48F3F81F0282F3327F90132
:1009B000E95DFD4F808180930D018F3F11F480939D
:1009C0000C018FEF8083C90102C08FEF90E080930C
:1009D000830181E08093210186E009C082E0809359
:1009E0000B011092210181E08093200188E00E9498
:1009F0008C00CFBF81E090E0CF9108951F93CF93FB
:100A0000DF93182FEB0180E00E94BC04112321F436
:100A1000D0938801C093870181E00E947502DF9125
:100A2000CF911F91089580E880935D01109290010D
:100A300010928901109223020895AF92BF92CF9233
:100A4000DF92EF920F931F93982F613029F4AE9AA3
:100A500080916301806206C0662331F4AE98809174
:100A600063018F7D80936301913029F4AD9A809169
:100A70006301806106C0992331F4AD9880916301D0
:100A80008F7E809363018FEF4F3F580781F05A01AB
:100A9000CC24DD240E94DF00DC01CB0151E0E52EF7
:100AA00096018501AC01BD0184E00E94C0001F9148
:100AB0000F91EF90DF90CF90BF90AF9008958FB7D8
:100AC000F894682F772780916001909161012CB58F
:100AD0003DB506B602FE03C001962CB53DB5AA276A
:100AE000BB2744275527DC0199278827822B932B86
:100AF000A42BB52B6FBFBC01CD010895AF92BF925F
:100B0000CF92DF92EF92FF920F931F93CF93DF93D9
:100B10000E94DF00FC01EB0120917B0130917C0100
:100B200040917D0150917E017B018C01E21AF30A14
:100B3000040B150B1092800180916D0190916E0154
:100B4000A0916F01B0917001E816F9060A071B0722
:100B5000C0F0EE24FF248701280F391F4A1F5B1FB6
:100B600020937B0130937C0140937D0150937E0163
:100B7000E0926D01F0926E0100936F01109370018D
:100B800063C05C016D01AE18BF08C00AD10A8601BE
:100B9000750161E0A61661E0B60660E0C60660E099
:100BA000D60690F080E0A81680E0B80681E0C8067E
:100BB00080E0D80610F08FEF04C0BB27AD2D9C2D30
:100BC0008B2D8093800158C061E8A616B104C10442
:100BD000D10430F1C058DF4FEF4FFF4FC0937B017E
:100BE000D0937C01E0937D01F0937E01C058D0400A
:100BF000E040F04080E89FEFAFEFBFEFE80EF91E56
:100C00000A1F1B1FE0926D01F0926E0100936F01AD
:100C100010937001E0E8EE2EF12C012D112D14C07F
:100C2000280F391F4A1F5B1F20937B0130937C01E3
:100C300040937D0150937E0110926D0110926E01E0
:100C400010926F01109270016E2D82B7282F8C1BAD
:100C50008E5F8E1518F0622F6E5F01C06C0F6623D9
:100C600009F461E0615000B601FCFDCF61BF82E094
:100C700086BF87B7826087BFDF91CF911F910F91A9
:100C8000FF90EF90DF90CF90BF90AF9008950F93BB
:100C90001F93DC01CB016FB7F894062F11278093C7
:100CA0007B0190937C01A0937D01B0937E01209302
:100CB0006D0130936E0140936F01509370010E945B
:100CC0007E050FBF1F910F910895AF92BF92CF92F3
:100CD000DF92EF92FF920F931F93CF93DF930E94C7
:100CE0005F05FC01EB018091730190917401A0916B
:100CF0007501B0917601A0900102B0900202C090FF
:100D00000302D09004029C01AD012A0D3B1D4C1D35
:100D10005D1D79018A01EC1AFD0A0E0B1F0BC81725
:100D2000D907EA07FB0730F0281739074A075B079E
:100D300070F005C0281739074A075B0728F4C21767
:100D4000D307E407F50718F0EE24FF24870121E01C
:100D5000E21620E8F20620E0020720E0120730F158
:100D6000C050D048EF4FFF4FC0937301D093740130
:100D7000E0937501F0937601C050D048E040F04018
:100D800080E090E8AFEFBFEFE80EF91E0A1F1B1FCF
:100D9000E0920102F0920202009303021093040217
:100DA000E12CA0E8FA2E012D112D14C08A0D9B1DF7
:100DB000AC1DBD1D8093730190937401A0937501C8
:100DC000B093760110920102109202021092030277
:100DD00010920402B7012CB53DB5C9018C1B9D0BC7
:100DE00003968E159F0520F0B9016D5F7F4F02C0FD
:100DF0006C0F7D1F6115710511F461E070E06150A9
:100E000070407BBD6ABD80E186BF87B7806187BFC8
:100E1000DF91CF911F910F91FF90EF90DF90CF90D6
:100E2000BF90AF9008950F931F93DC01CB016FB774
:100E3000F894062F11278093730190937401A09367
:100E40007501B09376012093010230930202409322
:100E50000302509304020E9465060FBF1F910F9179
:100E60000895EF92FF920F931F93CF938FB7F8944B
:100E7000C82F0E941701DC01CB019C012770307044
:100E80002F5F3F4FC1F0C901B3E0880F991FBA959A
:100E9000E1F7820F931F820F931F7C010027112718
:100EA0000E945F05DC01CB01A8019701BC01CD01C7
:100EB0000E94130706C081E090E090931401809394
:100EC0001301CFBFCF911F910F91FF90EF90089525
:100ED00097B79F7D97BF90E296BF882319F08EB594
:100EE000806402C08EB58F7B8EBD87B7806287BF5E
:100EF00080E090E008958FB9779BFECF8FB199275E
:100F000008950F931F938B010E947B07812F9927D0
:100F10000E947B07802F0E947B0799271F910F91CA
:100F20000895DF92EF92FF920F931F93CF937A0170
:100F3000C22FDD248C01060F111D802F80680E94B6
:100F40007B0716950795802F807C0E947B07CC231A
:100F500041F0F70181917F010E947B07D82EC1509B
:100F6000F6CF8D2D9927CF911F910F91FF90EF9084
:100F7000DF900895882311F06F9A08956F9808956F
:100F80001F9310E0812F0E940701BA9ABB98B99A6B
:100F9000B89A6C9AC098812F0E94BA07709A6B9881
:100FA0006A98689881E00E9407011F9108950F9345
:100FB0001F93CF93082F8FB7F894282F3327122F22
:100FC00080911701882321F02FBF85E090E021C098
:100FD00090911501992341F482E08093150190933B
:100FE000030180E090E002C081E090E09927C82FE3
:100FF000882311F40E94C0078C2F9927282F88235B
:1010000029F40093060181E0809317011FBF822F0E
:101010009927CF911F910F910895CF93C82F0E94C8
:101020000D01882311F40E94C007809115018823C7
:1010300059F481E080931501C093940181E10E94ED
:101040008C0080E090E01EC0EC2FFF27E65AFE4F98
:1010500080818F3FA1F4E0910401EC1781F0809131
:1010600005018F3F19F4C093050104C0FF27E65A1C
:10107000FE4FC083C093040180E090E002C085E091
:1010800090E099279927CF910895CF93282F8FB774
:10109000F894C82F90911701992369F081E090E0AE
:1010A00002C0880F991F2A95E2F720911601282B7C
:1010B0002093160108C02093060181E08093170158
:1010C000892F0E940D08CFBF80E090E0CF91089556
:1010D000CF9382E00E94D7079927C82F882319F061
:1010E00082E00E9445088C2F9927CF9108951F9385
:1010F000CF93DF93982F8FB7F894282F3327122F91
:1011000080910601891721F02FBF81E090E071C026
:101110004FEF4093060180911501823009F03FC0E6
:10112000909103019923D9F520E030E080910501E9
:10113000841711F421E030E0232B69F58F3F79F01B
:10114000282F3327F901E65AFE4F8081809305014D
:101150008F3F11F4409304014083C90102C08FEF17
:1011600090E08093940181E08093150181E10E94D9
:101170008C0015C02093060181E090E002C0880F2A
:10118000991F4A95E2F7809538233093160180E045
:101190000E940D082BC040930301909315010E94FB
:1011A0000D01C82FDD27CC2331F48C2F0E940701BD
:1011B000C0932202C09A309116013323A9F02091E6
:1011C00006012F5F632F7727243008F020E0422F9D
:1011D0005527CB01042E02C0959587950A94E2F716
:1011E00080FDC8CF2F5FF0CF109217011FBF80E0A6
:1011F00090E0DF91CF911F910895CF93C1E0C09807
:1012000080917F01882311F085E001C084E00E9475
:101210007B0783FD05C080E00E947B0783FDC0E063
:101220008FB7F894CC2319F023E030E002C025E01A
:1012300030E030931401209313018FBFC09ACC2368
:1012400029F082E00E9477080E943107CF9108952B
:101250002F923F924F925F926F927F928F929F92C6
:10126000AF92BF92CF92DF92EF92FF920F931F93B4
:10127000CF93DF93CDB7DEB724970FB6F894DEBFD8
:101280000FBECDBF1B012C016624AA24BB2467E23C
:10129000862E61E0962EF401608561FF37C12081C2
:1012A000318142815381D201C101821B930BA40B76
:1012B000B50BE480F580068117818E159F05A00788
:1012C000B10708F423C160FF03C06D7F608709C0C8
:1012D0002E0D3F1D401F511FF40120833183428397
:1012E0005383F2E0AF16B104C9F183E0A816B1044C
:1012F00044F4A114B10481F091E0A916B10481F085
:1013000005C1E3E0AE16B10409F45DC0F4E0AF1628
:10131000B10409F4F4C0FAC080E00E942B02F6C0C8
:101320008FB7F894082F1127902F80910B018230EE
:1013300099F480912101813021F486E00E948C0093
:1013400009C0823049F48091830180930B0183E0CE
:10135000809321010FBFDAC09FBFD8C080912502C2
:101360009091260285309105D1F08630910518F4D0
:10137000039739F0CBC04E9709F0C8C010922401F2
:10138000C5C01092240180910702682F772761154C
:10139000710509F0BBC081E00E94FE04B7C0109245
:1013A0002401809107029927009709F4AFC00197A3
:1013B00009F0ACC081E00E94BC0460E070E081E014
:1013C0000E949003A3C08FB7F8949927C09018018A
:1013D000CC2011F08FBF9AC08FBF80B3992756E001
:1013E000969587955A95E1F7782E81E0782280913D
:1013F000860190915501891709F47BC0791609F08F
:1014000078C084E090E090931A01809319018E01D6
:101410000F5F1F4F80910701909108018983892FE9
:101420009927F801818380910802909109028B83AA
:10143000892F99278C838FB7F894992721E0D22E92
:10144000D09218018FBF80E10E948C0060E070E0B4
:101450008DE10E94810724E0A8016C2D88E691E0CF
:101460000E949107C09AC0988FB7F894E82EFF2485
:101470008D2D0E94680701E010E010931401009385
:101480001301C0921201C0920502EFBE8FB7F8940B
:10149000E82EFF240E941305109368010093670152
:1014A00089B78F7B89BF80E488BF8AB780628ABF93
:1014B0008AB78F7E8ABF89B7806489BFEFBE8FB736
:1014C000F894082F11278091190190911A0104971F
:1014D00019F483E00E947B070FBF8FB7F894082FA1
:1014E0001127C09A80E00E9477080FBF8BE00E940E
:1014F0008C00709286018FE00E948C0007C0AD982E
:1015000080916301AE988F7C80936301639489E03E
:1015100090E0880E991E0894A11CB11C94E09615C9
:1015200008F0B9CE82E00E948C0024960FB6F894A1
:10153000DEBF0FBECDBFDF91CF911F910F91FF9006
:10154000EF90DF90CF90BF90AF909F908F907F9063
:101550006F905F904F903F902F9008958F929F9241
:10156000AF92BF92CF92DF92EF92FF920F931F93B1
:10157000CF93DF938FB7F894C0908101D090820110
:1015800080905B0190905C01C0916401D0916501F5
:10159000AE01465F5F4F209195013091960124176F
:1015A000350708F09A018FBF59010894A108B108C6
:1015B000CA15DB05E8F47E01E80CF91C8E010C0D60
:1015C0001D1DC114D10419F0F801808101C080E013
:1015D0000E947B078114910411F0F701808321960A
:1015E0000F5F1F4F0894E11CF11CCA15DB0548F37F
:1015F00081E00E94BA078FB7F894982FC114D104E4
:1016000031F0CC0EDD1EF60180818FB901C01FB80C
:10161000D0936501C09364019FBF80E090E0DF91AB
:10162000CF911F910F91FF90EF90DF90CF90BF90DF
:10163000AF909F908F9008959C018FB7F894992751
:10164000309382012093810170935C0160935B0170
:101650005093960140939501109265011092640198
:101660008FBF8FB10E94AE0A992708950F931F93E1
:10167000C09800912501109126018FE790E090938A
:10168000F5018093F4018091F4010E947B0741E011
:1016900050E0B80180E090E00E941C0B1F910F9178
:1016A000089582E090E0909368018093670183E061
:1016B0000E94D707882319F40E94360B089583E00F
:1016C0000E9445080895CF938FB7F894282F3327A9
:1016D000C22F8091670190916801892B11F42FBF6F
:1016E00026C020912302222341F080E090E0B79BA6
:1016F00002C081E090E0892B49F481B1992776E01E
:10170000969587957A95E1F780FD08C0222319F018
:101710002150209323020E94510B08C081E090E0E9
:10172000909368018093670110922302CFBFCF91FD
:1017300008951F93CF93DF93C0917901D0917A01DF
:101740008FA19927182F882309F41FE1C098809151
:101750000502811741F0812F9927806E9068BC01A6
:1017600085E10E94810710930502188111508EE3D4
:1017700090E09093F5018093F4018091F4010E9430
:101780007B07812F9927AC0160E070E0CE010E94B9
:101790001C0BDF91CF911F910895CF93DF93DA0156
:1017A000EA018A876E83872F99278F8382E390E0EF
:1017B0008C8360E070E06D83245F8FB7F894482FCE
:1017C000552780911C01833021F04FBF81E090E0CC
:1017D00059C085E080931C01B0932002A0931F02A2
:1017E0008091FA018F5F8093FA01FD0183834FBFDF
:1017F0002193ED0189819927807290708983892FC7
:10180000992781839927982F882729813327822B2D
:10181000932B816498688983892F9927818380918C
:101820000101909102018887892F992789876BA7E9
:1018300068A769A71DA66CA740911F0250912002BE
:101840008FB7F894282F33278091130190911401BA
:10185000019711F02FBF14C082E090E09093140123
:101860008093130181E080937F0150937A0140932C
:1018700079012FBF0E946808882311F40E94990BF8
:1018800080E090E09927DF91CF910895CF92DF9289
:10189000EF92FF920F931F93209100012F3F09F4C5
:1018A00020E03327C90101962817390748F48091B1
:1018B000580190915901892B19F01092000103C031
:1018C0008FEF80930001E0910001EF3FF1F0FF27DF
:1018D000EE0FFF1FE85AFE4F00811181F80182854B
:1018E000C82EDD24C8010E94B6007C01C8010E94F8
:1018F000B1009927282FA801B7018C2D0E94CD0B8C
:10190000882319F083E10E948C001F910F91FF90B2
:10191000EF90DF90CF9008958998919A909A80B334
:1019200099279695879580FF03C081E090E0089500
:10193000909880E090E00895AF92BF92CF92DF92AE
:10194000EF920F931F935B016C010E94DF00DC019B
:10195000CB0151E0E52E96018501AC01BD0182E08D
:101960000E94C0001F910F91EF90DF90CF90BF9029
:10197000AF9008951F93889A90988998919A89B703
:101980008D7F89BF899A919A909888E0909A9098D3
:10199000815087FFFBCF899A919A9098909A91985D
:1019A0009098909A919A9098809125029091260211
:1019B0008F7190709093260280932502809125026A
:1019C0000E9463030E948C0C882329F0109224014A
:1019D00081E090E048C02091250230912602263017
:1019E000310561F12730310538F42330310579F0C4
:1019F0002530310561F035C02730310599F02E31A1
:101A0000310579F56BE070E080E090E008C08998DE
:101A1000919A0E9470036AEF70E080E090E00E946B
:101A20009C0C1FC00E949E04182F0E949E040E94BE
:101A3000B7041093230184E00E948C0080918501FB
:101A40000E9463030E948C0C882321F081E0809324
:101A5000220104C0809185018093230184E00E94CB
:101A60008C0080E090E01F910895AF92BF92CF92DA
:101A7000DF92EF92FF920F931F93CF93DF93CDB737
:101A8000DEB762970FB6F894DEBF0FBECDBF9927C1
:101A9000AA27BB27FC01449708F018C4EA5BFF4F54
:101AA000EE0FFF1F0590F491E02D09948FB7F89485
:101AB000282F332780910F01898381E08A8385E075
:101AC0008B838AE08C8380917101909172018D8368
:101AD0009E8380918701909188018F839887809160
:101AE00091019091920189879A878091FB01909151
:101AF000FC018B879C8780917701909178018D877D
:101B00009E872FBF02EA11E02EE0B22EFE01319631
:101B1000D8012B2D01900D922A95E1F70B50104022
:101B20008FEF9FEF80939D018FEF90E080939E0158
:101B300099E0C92EC092A101E0905801F09059019E
:101B4000E114F10409F0C2C3109359010093580144
:101B50008AE180939701D09000013FEFD31609F0FE
:101B6000B5C3C8010E94B600109200012B2DA80138
:101B7000BC018C2D0E94CD0B882309F4A7C3D09201
:101B80000001F0925901E0925801A0C34091540124
:101B9000442339F58FB7F894282F3327E0907B0141
:101BA000F0907C0100917D0110917E0180916D018A
:101BB00090916E01A0916F01B0917001E80EF91E35
:101BC0000A1F1B1F2FBF8091FD019091FE01A09164
:101BD000FF01B09100029C01AD01C801B7010E9454
:101BE00047060E94DF00DC01CB01BC01CD0140C0F3
:101BF0000E94DF007B018C018FEFA82E8FEFB82EA3
:101C00008FEFC82E8FE7D82E70E087B78D7F87BF04
:101C1000E7E2F1E064E0808581FF1CC08081918172
:101C2000A281B381A8019701281B390B4A0B5B0BDA
:101C3000DA01C9012481358146815781281B390B7E
:101C40004A0B5B0B2A153B054C055D051CF459013D
:101C50006A0171E06150399667FFDDCF772309F49F
:101C600035C31A141B041C041D042CF0C801B70151
:101C70000E9428092BC3A092FD01B092FE01C092E0
:101C8000FF01D092000281E080935401A6019501EA
:101C9000C801B7010E94470619C380912401882317
:101CA00009F414C3809141018D7F809341010E940A
:101CB0009E049927182F00270E949E049927082B1D
:101CC000192B0E949E040E94B704809125029091D6
:101CD00026028330910519F0059761F0F7C2109242
:101CE000240180910702882309F0F0C2B8010E9404
:101CF000FE04ECC2109224018091070299270097FC
:101D000009F4E4C2019709F0E1C281E00E94BC0439
:101D1000B80180E08AC08091250290912602863029
:101D2000910531F0079709F0D1C210922401CEC27B
:101D30001092240110922201C9C280911F018130AA
:101D400031F46BE070E080E090E00E9442038FB7D6
:101D5000F894992710921F011092200136C18FB775
:101D6000F894282F33279091830190930B0183E0FF
:101D7000809321012FBF892F9927009719F0019790
:101D800069F1A4C280910E01882319F484E090E0E7
:101D900015C020912401222319F085E090E00EC0A7
:101DA00081E08093240183E090E090932602809369
:101DB0002502209307020E94BA0C9927082F1127A9
:101DC000002309F483C280E00E94BC04002321F4B4
:101DD000109288011092870181E0AEC021E08091CD
:101DE0000E01882319F484E090E014C0809124014E
:101DF000882319F085E090E00DC02093240185E050
:101E000090E09093260280932502209307020E947F
:101E1000BA0C9927082F1127002309F457C281E033
:101E20000E94BC0460E070E0802F0E9490034EC2CC
:101E30006BE070E080E090E00E94420347C2889827
:101E400090988998919885E088C18FB7F894282F49
:101E500033279091840190930A0183E080931D01C0
:101E60002FBF892F99278130910571F0823091051C
:101E70001CF4892B21F008C0029721F005C0149AA8
:101E80001C9A02C0D79ADF9A80910A019927813063
:101E9000910579F0823091051CF4892B21F016C24E
:101EA000029759F013C281E0809393011092C5010B
:101EB0000AC081E08093930104C081E08093930184
:101EC00082E08093C5010E94B20200C21092930189
:101ED0008091C501E0905E01F0905F01082F11270D
:101EE0000130110569F00230110524F401151105C6
:101EF00029F00BC00230110529F007C080E003C0B3
:101F000081E001C082E00E94B20101301105B9F008
:101F1000023011051CF4012B29F0D8C10230110543
:101F2000C1F0D4C116E0F694E7941A95E1F7F09267
:101F30007201E092710180E00E947502C7C1B6E0B3
:101F4000F694E794BA95E1F7F092FC01E092FB0178
:101F5000BDC1A6E0F694E794AA95E1F7F092780166
:101F6000E092770181E00E942B02B0C183E001C0C2
:101F700081E080931C01AAC18FB7F89499278FBF85
:101F800083E080931C0120911F02309120028091F8
:101F90000001082F1127F801E00FF11FE85AFE4F4A
:101FA000808191818217930709F090C1108211827C
:101FB0000E94460C012B09F089C10E94820086C153
:101FC0008FB7F8949927109266018FBF7FC18FB7A2
:101FD000F894C82EDD2480911801882379F40E949A
:101FE000DF00DC01CB01F1E0EF2E01E010E020E0AA
:101FF00030E0AC01BD0183E00E94C000CFBE66C1ED
:102000008FB7F894282F332780911801882329F05F
:1020100080914A018D7F80934A012FBF57C18FB7AE
:10202000F894282F3327909194019093030182E034
:10203000809315012FBF992309F048C18FB7F894F9
:102040009927209106018FBF33272130310509F4EC
:1020500053C0223031051CF4232B51F037C12230FC
:10206000310509F47DC02330310509F491C02EC13A
:10207000C0988FB7F894E82EFF24809119019091B1
:102080001A010297B9F583E090E090931A018093CA
:10209000190168E170E08DE10E94810711E0109361
:1020A00055011092180180B39927E6E0969587951F
:1020B000EA95E1F78123809386018FE00E948C00EE
:1020C000812F0E947B076FE772E08CE10E948107FD
:1020D0009091090185E0989FC0011124825D9E4F77
:1020E0009064BC0188E10E94810762EF7AE281E19D
:1020F0000E948107EFBEEAC08FB7F894282F3327DC
:102100004091090180910701909108018F87892FE3
:102110009927888B8091080290910902898B892FD9
:1021200099278A8B2FBFC09885E0489FC001112452
:10213000825D9E4F9064BC0188E10E94810724E08B
:10214000AE01415F5F4F60E088E691E00E94910739
:10215000C09A81E00E9477088EE00E948C00B6C091
:102160008FB7F8949927209113018FBF332722301E
:10217000310521F02430310521F006C00E94990B71
:10218000A5C00E94FD08A2C082E00E9477089EC000
:102190000E94360B9BC0A0912501B0912601DC90D6
:1021A0009D012D0D311DF9018081881F8827881F11
:1021B000FD0182A7F90182919F012F5F3F4FFD0131
:1021C00080A7F90180818F77FD0181A7E09025012B
:1021D000F09026018701055F1F4FC7010E94B600DE
:1021E0009C0180910101909102012817390721F08B
:1021F0002F5F3F4F09F053C0F7018285AD2DAC50E2
:10220000893009F04CC04FEF5FEF8385282F3327CB
:1022100080910F01909110012817390709F03FC0F4
:10222000F801818199278130910519F0029749F0D1
:1022300034C0F8018281853081F580E00E948C00F5
:102240002CC0A53018F0F80144815581F801828135
:102250008D3011F460E003C08E3019F461E082E04B
:102260001AC08F3011F462E010C0803111F462E0C6
:1022700007C0813111F460E00DC0823119F460E0D3
:1022800081E009C0833119F461E080E004C0843149
:1022900021F461E0862F0E941D050E948200F092C9
:1022A0002601E09225010E94630B10C0809100017D
:1022B0009927FC01E80FF91FE85AFE4F108211829E
:1022C000892B11F40E9482000E94460C62960FB680
:1022D000F894DEBF0FBECDBFDF91CF911F910F915C
:1022E000FF90EF90DF90CF90BF90AF9008958091D6
:1022F00006028F3FD1F09091060280910602E82FEE
:10230000FF27E65FFD4F80818093060280910602E1
:102310008F3F11F480932102892F9927FC01E65FFA
:10232000FD4F2FEF20839C0102C02FEF30E02F3FA5
:1023300019F480E090E00895822F0E94350D81E02D
:1023400090E00895CFEFD0E1DEBFCDBF8FB7F89416
:10235000182F44E150E06FEF70E08AE092E00E94B5
:102360008F198FEF809306028093210281E08EBD4A
:1023700088E080BF83E083BF2CB53DB54AE78CB5CC
:102380009DB58217930708F441509C014423B9F787
:1023900092B782B78917E9F32CB53DB592B782B7EA
:1023A0008917E9F38CB59DB5821B930B409635E0F8
:1023B000969587953A95E1F790938F0180938E01DA
:1023C00013BE83B78EBD8EB580BF12BE1DBC1CBCB4
:1023D0008FEF86BF86B780937C0080B7282F332786
:1023E0002770307021153105C1F7D29AD19AD09A51
:1023F000DA9AD99AD89A25BB8FEF84BB3DBD2CBD04
:1024000087B7846087BF8EB5887F84608EBD16B81D
:1024100080B7886080BF80E285BF0E9477118823E3
:10242000E1F780910F01909110010196AA27BB2737
:102430008093690190936A01A0936B01B0936C0142
:102440008FEF80935A0180911C01882319F481E059
:1024500080931C01B89AD69AD59A809101019091E7
:10246000020190930902809308028E98B89A8C9882
:1024700086EC91E0909326018093250110926201F1
:102480008FEF9FEF909328028093270200B602FC03
:10249000FDCF12BE87B7816087BF83B7887F836017
:1024A00000B600FCFDCF83BF0E947711C82FDD2747
:1024B000CC23D1F71FBF78948FB7F894282F3327F8
:1024C0008FEF9FEF9093F7018093F6019093570160
:1024D0008093560190937201809371019093FC0157
:1024E0008093FB01909388018093870190939201E0
:1024F0008093910190937801809377012FBFAE98DC
:10250000A69AAD98A59AC09363010E94DF00DC01F2
:10251000CB01EC2E08EE13E020E030E0AC01BD0171
:102520008C2F0E94C00080911C01813049F582E00F
:1025300080931C010E941701DC01CB018093FA01FA
:102540008FB7F894282F33278091190190911A01A1
:10255000892B11F02FBF14C081E090E090931A01F5
:10256000809319012FBFDD9A0E945F05DC01CB012A
:1025700024E130E040E050E0BC01CD010E941307AF
:102580008FB7F894482F4AC087B79927887B892B43
:1025900041F480917D00282F33272B7F21153105B1
:1025A00019F020E030E02AC06F9928C08AB1807C01
:1025B00029F580919A00807C09F5379B03C021E0C2
:1025C00030E01CC087B7992783709070892BA1F0E9
:1025D00080B7992787709070892BD1F781B792B710
:1025E000891B8C3018F082B7853F18F022E030E06C
:1025F00005C023E030E002C025E030E0E5E02E1722
:1026000008F4E22F85B7837EFF27EC54FF4F9491A7
:10261000892B806285BF78948895F8948091060212
:102620008F3FC9F09091060280910602E82FFF27A4
:10263000E65FFD4F808180930602809106028F3F06
:1026400011F480932102892F9927FC01E65FFD4F49
:102650002FEF208302C08FEF90E08F3F09F494CFDB
:102660004FBF0E94350D8CCF83B783BF00B600FCEF
:10267000FDCF08951F920F920FB60F9211242F9342
:102680003F934F935F936F937F938F939F93AF93FA
:10269000BF93CF93EF93FF930E94341387B78D7F3F
:1026A00087BF78948FB7F894C82F80916D0190916F
:1026B0006E01A0916F01B09170010097A105B10565
:1026C00021F481E00E948C0002C00E947E05CFBFF1
:1026D000FF91EF91CF91BF91AF919F918F917F919A
:1026E0006F915F914F913F912F910F900FBE0F907F
:1026F0001F9018951F920F920FB60F9211242F93CF
:102700003F934F935F936F937F938F939F93AF9379
:10271000BF93EF93FF930E94341380918A019091AD
:102720008B01A0918C01B0918D010196A11DB11D6D
:1027300080938A0190938B01A0938C01B0938D01BB
:1027400080918001882339F0815080938001882313
:1027500011F40E947E05FF91EF91BF91AF919F917F
:102760008F917F916F915F914F913F912F910F903A
:102770000FBE0F901F9018951F920F920FB60F92D9
:1027800011240F900FBE0F901F9018951F920F925B
:102790000FB60F9211242F933F934F935F936F9334
:1027A0007F938F939F93AF93BF93EF93FF9389B7DB
:1027B0008D7F89BF83E00E948C00FF91EF91BF91D4
:1027C000AF919F918F917F916F915F914F913F91C9
:1027D0002F910F900FBE0F901F9018951F920F9280
:1027E0000FB60F9211240F900FBE0F901F901895E7
:1027F0001F920F920FB60F9211240F900FBE0F90E1
:102800001F9018951F920F920FB60F9211240F90E0
:102810000FBE0F901F9018951F920F920FB60F9238
:1028200011240F900FBE0F901F9018951F920F92BA
:102830000FB60F9211242F933F934F935F936F9393
:102840007F938F939F93AF93BF93EF93FF93809169
:10285000670190916801019719F40E94510B05C01E
:10286000809123028F5F80932302FF91EF91BF91AC
:10287000AF919F918F917F916F915F914F913F9118
:102880002F910F900FBE0F901F9018951F920F92CF
:102890000FB60F9211240F900FBE0F901F90189536
:1028A0001F920F920FB60F9211242F933F934F93C5
:1028B0005F936F937F938F939F93AF93BF93EF93A8
:1028C000FF9364B175B178948FB7F894282F3327AC
:1028D00080911E02482F469541702FBF282F2170EE
:1028E00080FD1CC033988091930199278130910518
:1028F00019F0029759F028C0442351F070935F01FA
:1029000060935E018AE00E948C001EC0442319F48B
:102910000E94B20219C02093930116C08FB7F89499
:1029200099278FBF8FB7F894482F552786B18061BC
:102930008777282F332726B98F7B282F332726B96F
:102940008068992786B94FBFFF91EF91BF91AF91F2
:102950009F918F917F916F915F914F913F912F91B7
:102960000F900FBE0F901F90189578941F920F92A2
:102970000FB60F9211242F933F934F935F936F9352
:102980007F938F939F93AF93BF93CF93EF93FF93D7
:1029900087B78F7E87BF78948FB7F894C82F8091C0
:1029A000010290910202A0910302B09104020097EB
:1029B000A105B10509F053C0809113019091140154
:1029C0008430910541F18530910518F4039721F089
:1029D00034C0079739F131C080B3992746E0969506
:1029E00087954A95E1F780FF13C084E090E09093CB
:1029F0001401809313010E945F05DC01CB0127E0E5
:102A000030E040E050E0BC01CD010E94130715C04A
:102A10000E94310712C00E946808882371F40E9446
:102A2000FD080BC081E090E09093140180931301A6
:102A300010921B018DE00E948C00809119019091F1
:102A40001A01019771F482E090E090931A0180934B
:102A50001901DE98DE9A80E00E94450802C00E94BB
:102A60006506CFBFFF91EF91CF91BF91AF919F913D
:102A70008F917F916F915F914F913F912F910F9027
:102A80000FBE0F901F90189578941F920F920FB65B
:102A90000F9211240F900FBE0F901F9018957894ED
:102AA0001F920F920FB60F9211240F900FBE0F902E
:102AB0001F90189578941F920F920FB60F921124C1
:102AC0001F932F933F934F935F936F937F938F93B6
:102AD0009F93AF93BF93CF93DF93EF93FF93CCB5C7
:102AE000DDB580E286BF8FB7F894182F809113016F
:102AF000909114018530910519F0069739F157C06E
:102B000080E00E94680782E00E94770887B78F7E86
:102B100087BF86E090E09093140180931301E091C9
:102B20007901F0917A0181819927877090700197DE
:102B300021F4C5A78D2F992784A780B3992774E026
:102B4000969587957A95E1F780FD77C081E00E94A0
:102B50006807E0917901F0917A01818185FF13C0C6
:102B600087E090E090931401809313010E945F0529
:102B7000DC01CB0120E830E040E050E0BC01CD01B9
:102B80000E9413070BC081E090E0909314018093A2
:102B9000130110921B018DE00E948C0080B39927D5
:102BA00064E0969587956A95E1F780FF46C080912D
:102BB0001201882351F50E94680740919001483026
:102BC000A0F480918901840F912D911D9C01887F33
:102BD0009370281BE22FFF27EE0FFF1FE75DFD4FCD
:102BE000C083D1834F5F4093900181E080931201B5
:102BF000D093F901C093F80180B3992754E09695DA
:102C000087955A95E1F780FD18C0809112018823BD
:102C1000A1F081E00E946807109212018091F801F2
:102C20009091F901C81BD90B2A9738F48091900133
:102C3000882319F08150809390011FBFFF91EF917D
:102C4000DF91CF91BF91AF919F918F917F916F91C4
:102C50005F914F913F912F911F910F900FBE0F9059
:102C60001F90189578941F920F920FB60F9211240F
:102C70002F933F938F939F938FB7F894282F3327E9
:102C80008091600190916101019690936101809320
:102C900060012FBF9F918F913F912F910F900FBE99
:102CA0000F901F9018951F920F920FB60F9211243C
:102CB000EF92FF920F931F932F933F934F935F9346
:102CC0006F937F938F939F93AF93BF93CF93DF9334
:102CD000EF93FF938FB1282F3327E0915B01F091A1
:102CE0005C01309739F08091640190916501E80FA3
:102CF000F91F208380916401909165010196909362
:102D000065018093640180E00E94BA07209164010C
:102D100030916501809195019091960128173907AE
:102D200018F40E94AE0A35C1E0905B01F0905C019E
:102D300010925C0110925B0110928201109281014D
:102D40001092960110929501109265011092640103
:102D50008FB18091F4019091F5012091F40186FFEB
:102D6000D3C02F7B822F99278E33910509F411C18F
:102D7000CF9709F00EC1C0912501D091260118818D
:102D800080916701909168018230910521F003974D
:102D900009F444C0B4C083E090E09093680180934C
:102DA0006701412F55279A012F5F3F4F60915D01C9
:102DB000862F9927821793077CF40E941305C09AE7
:102DC000C09888E00E947B0788E00E947B07C09A39
:102DD00083E00E94770890C080E090E0B79B02C03B
:102DE00081E090E0892B69F481B1992726E09695DE
:102DF00087952A95E1F780FD04C0611B61506093BF
:102E00005D01193220F4BE016F5F7F4F02C060E0A8
:102E100070E080E090E00E941C0BBBC0C09A83E091
:102E20000E94770880919001882309F11B3028F1D6
:102E300080918901E82FFF27EE0FFF1FE75DFD4F0F
:102E4000808191818DA7892F99278CA780918901F5
:102E5000992701969C01287F3170821B930B8093E8
:102E600089018091900181508093900106C08FEF7D
:102E70009FEF8DA78FEF90E08CA7FE01E10FF11D72
:102E8000808187FF39C0EF28B9F169816770E091CF
:102E90002501F0912601623049F5A0917901B091A8
:102EA0007A0120818091130190911401079721F5F7
:102EB000ED019B8183818917F9F487B78F7E87BFE6
:102EC00081E08BA7E20FF11D8291319688A7808166
:102ED0008F7789A781E090E090931401809313018C
:102EE00010921B018DE00E948C0006C0613021F41D
:102EF00082E10E948C004DC00E94630B4AC0C09AC0
:102F000083E00E94770845C02E3309F042C0C09A82
:102F10008091130190911401089739F481E090E0B9
:102F2000909314018093130134C080917F01882312
:102F300049F484E090E090931401809313010E947F
:102F4000FD0827C082E00E94770883E090E090931C
:102F50001401809313010E941701DC01CB018F71D2
:102F6000907001969C01B3E0220F331FBA95E1F7F0
:102F7000280F391F280F391F7901002711270E94B8
:102F80005F05DC01CB01A8019701BC01CD010E94C6
:102F90001307FF91EF91DF91CF91BF91AF919F9177
:102FA0008F917F916F915F914F913F912F911F91E1
:102FB0000F91FF90EF900F900FBE0F901F901895FC
:102FC000A0E3B0E0E6EEF7E10C94D21A222E332E05
:102FD000442E552E662E772E882E992E2A2D3B2D87
:102FE000A8E0FE013196AA2E1192AA94E9F729824F
:102FF0003A824B825C826D827E828F829886FE014D
:103000003996BA2E1192BA94E9F729873A87CB8676
:10301000DC86ED86FE860F87188BFE017196119275
:10302000AA95E9F7C980DA80EB80FC80C9A6DAA608
:10303000EBA6FCA6870176018FEF9FEFA0E0B0E042
:10304000E822F9220A231B23A9A4BAA4CBA4DCA456
:1030500016014424552489859A85AB85BC858DA7A6
:103060009EA7AFA7B8AB5C016D018FEF9FEFA0E00B
:10307000B0E0A822B922CA22DB228DA59EA5AFA569
:10308000B8A93D0188249924C801B701A60195017A
:103090000E94B31A69A37AA38BA39CA3C801B701AA
:1030A000A40193010E94B31A6DA37EA38FA398A7D6
:1030B000C201B101A60195010E94B31A7B018C01E6
:1030C000C201B101A40193010E94B31A9B01AC019A
:1030D000A9A0BAA0CBA0DCA0C601AA27BB27ADA09F
:1030E000BEA0CFA0D8A4A80EB91ECA1EDB1EAE0C6F
:1030F000BF1CC01ED11EADA2BEA2CFA2D8A6AE14C8
:10310000BF04C006D10620F4205030404F4F5F4F1F
:10311000CDA0DEA0EFA0F8A4C701AA27BB27820F8D
:10312000931FA41FB51F8D8F9E8FAF8FB8A3A601CD
:103130003327222789A19AA1ABA1BCA1A070B070AE
:10314000280F391F4A1F5B1F298F3A8F4B8F5C8FC7
:10315000A98CBA8CCB8CDC8CED8CFE8C0F8D18A1DD
:10316000ED8AFE8A0F8B188F2D853E854F855889F5
:1031700069A57AA58BA59CA50E94B31A3B014C01B9
:103180008D819E81AF81B885BC01CD012DA53EA565
:103190004FA558A90E94B31ADC01CB01680E791E15
:1031A0008A1E9B1E8D899E89AF89B88D860D971DBD
:1031B000A81DB91D8D8B9E8BAF8BB88F6D897E89B5
:1031C0008F89988D2A2D3B2D4C2D5D2DE2E1E096C7
:1031D0000C94EE1A8F929F92AF92BF92CF92DF9291
:1031E000EF92FF920F93CF93DF93CDB7DEB768973F
:1031F0000FB6F894DEBF0FBECDBFE82E002349F412
:10320000298B3A8B4B8B5C8B6D8B7E8B8F8B988F46
:103210006CC088E0FE01319611928A95E9F7298306
:103220003A834B835C836D837E83EF82988740E291
:10323000401B14160CF041C08D819E81AF81B88572
:103240006C017D0104C0CC0CDD1CEE1CFF1C4A95FA
:10325000D2F7202F332727FD3095022E04C0B695D4
:10326000A795979587950A94D2F78D879E87AF8704
:10327000B88B89819A81AB81BC8104C0B695A79532
:10328000979587952A95D2F78C299D29AE29BF2934
:1032900089879A87AB87BC8729853A854B855C856A
:1032A0006D857E858F859889298B3A8B4B8B5C8BBE
:1032B0006D8B7E8B8F8B988F18C01D861E861F8608
:1032C000188A842F992787FD909522273327281B5A
:1032D000390B8D819E81AF81B88504C0B695A795C5
:1032E000979587952A95D2F7D3CF29893A894B8923
:1032F0005C896D897E898F89988D68960FB6F89460
:10330000DEBF0FBECDBFDF91CF910F91FF90EF9049
:10331000DF90CF90BF90AF909F908F900895DC0189
:1033200001C06D9341505040E0F708955058192E58
:10333000A6D001D08CC0BA1762077307840795071F
:10334000B1F188F40EF410940B2EBA2FA02D062E96
:10335000622F202D072E732F302D082E842F402D05
:10336000092E952F502DFF275523B9F0591B49F0F1
:10337000573E98F0469537952795A795F040539579
:10338000C9F776F0BA0F621F731F841F30F4879558
:1033900077956795B795F040939517FA0F2E089596
:1033A000BF1BBB27BA0B620B730B840BF6CFDEF689
:1033B00083C097FB70D09F3738F0FEE9F91B982F38
:1033C000872F762F6B2F05C074C0969587957795BC
:1033D0006795F150D0F73EF4909580957095619582
:1033E0007F4F8F4F9F4F0895E89403C097FB0EF4D3
:1033F000F3DFB62F672F782F892F9EE9002427C08F
:103400000ED05EF004C00BD026F001C008D019F039
:1034100020F48FEF089580E0089581E0089597FBF0
:10342000092E052600F868942DD0E89407FC07C003
:10343000621773078407950721F008F40094079436
:10344000989408959A95BB0F661F771F881F1124C3
:103450009923A1F08823B2F79F3F59F0BB0F48F49E
:1034600021F4002011F460FF04C06F5F7F4F8F4F85
:103470009F4F881F9795879597F908951AC0052E35
:10348000092607FA440F551F5F3F79F0AA27A517B1
:1034900008F051E04795880F991F9F3F31F0BB27F7
:1034A000B91708F091E0879508959F919F91112495
:1034B00057C066277727882799270895592F482FBF
:1034C000372F262FDCDF01D0C2CF992339F05523C7
:1034D00029F09F575F57950F13F4CAF1EDCF91581C
:1034E0009F3FE1F3A62F00241124BB276627552711
:1034F000F8E0A69520F4020E131EB41F651F220FDC
:10350000331F441F551FFA95A1F7F8E0E72F7727DF
:10351000F8E0E69520F4130EB41F651F7A1F330FF1
:10352000441F551FAA1FFA95A1F7F82F8827F69573
:1035300020F4B40F651F7A1F8E1F440F551FAA1F5A
:10354000EE1FFF23A1F788231AF4939539F408C0DE
:10355000000C111CBB1F661F771F881F01280895D0
:103560009FEF80EC0895629FD001739FF001829FCE
:10357000E00DF11D649FE00DF11D929FF00D839F02
:10358000F00D749FF00D659FF00D9927729FB00D9F
:10359000E11DF91F639FB00DE11DF91FBD01CF01B2
:1035A000112408952F923F924F925F926F927F92D3
:1035B0008F929F92AF92BF92CF92DF92EF92FF9243
:1035C0000F931F93CF93DF93CDB7DEB7CA1BDB0BEF
:1035D0000FB6F894DEBF0FBECDBF09942A88398894
:1035E00048885F846E847D848C849B84AA84B9849B
:1035F000C884DF80EE80FD800C811B81AA81B981A7
:10360000CE0FD11D0FB6F894DEBF0FBECDBFED01BA
:0236100008951B
:10361200FF1F00FFFFFFFF32001A0302FFFF011F1F
:023622000000A6
:00000001FF
